:020000040800F2
:10000000D80C002029020008D72C00080123000882
:10001000D52C00084905000819320008000000002E
:10002000000000000000000000000000DB2C0008C1
:100030004B05000800000000D92C0008DD2C00084A
:10004000430200084302000843020008430200087C
:10005000430200084302000843020008430200086C
:10006000430200084302000843020008430200085C
:10007000430200084302000843020008430200084C
:10008000430200084302000843020008430200083C
:10009000430200084302000843020008430200082C
:1000A000430200084302000843020008430200081C
:1000B000430200084302000843020008430200080C
:1000C00043020008430200084302000843020008FC
:1000D00043020008430200084302000843020008EC
:1000E00043020008430200084302000843020008DC
:1000F00043020008430200084302000843020008CC
:1001000043020008430200084302000843020008BB
:100110004302000843020008892D0008430200083A
:10012000430200084302000843020008430200089B
:10013000430200084302000843020008430200088B
:10014000430200084302000843020008430200087B
:10015000430200084302000843020008430200086B
:10016000430200084302000843020008430200085B
:100170004302000843020008430200080000000098
:10018000430200084302000800F002F800F03CF8C7
:100190000AA090E8000C82448344AAF10107DA45E2
:1001A00001D100F031F8AFF2090EBAE80F0013F0F8
:1001B000010F18BFFB1A43F0010318474431000038
:1001C00064310000103A24BF78C878C1FAD85207C9
:1001D00024BF30C830C144BF04680C6070470000C1
:1001E0000023002400250026103A28BF78C1FBD840
:1001F000520728BF30C148BF0B6070471FB503F0DE
:100200006DF81FBD10B510BD00F0CFF81146FFF717
:10021000F5FF03F012F800F0EDF803B4FFF7F2FF7A
:1002200003BC00F0F5F80000094880470948004782
:10023000FEE7FEE7FEE7FEE7FEE7FEE7FEE7FEE796
:10024000FEE7FEE704480549054A064B70470000F3
:10025000792D000889010008D8060020D80C00205C
:10026000D8080020D808002053EA020C00F069806A
:100270002DE9F04B4FF00006002B1FBFB3FA83F5BA
:1002800003FA05F424FA05F65E4012BF1643B2FAEB
:1002900082F502FA05F4C5F120051EBF22FA05FC1D
:1002A00044EA0C04203556EA044C4FEA144418BFC3
:1002B000641C4FF000084FF00009904271EB030CF2
:1002C00039D3002919BFB1FA81F701FA07F6B0FA5C
:1002D00080F700FA07F6C7F120071EBF20FA07FCD7
:1002E00046EA0C062037B6FBF4FCA7EB0507103FE7
:1002F00007F01F0BCBF120060CFA0BFB2CFA06F6CD
:1003000044BFB3460026202FA4BF5E464FF0000B2B
:100310005BEA060C08BF4FF0010B19EB0B09ABFBB6
:10032000027C48EB0608C01B06FB02CC0BFB03CC8F
:1003300071EB0C01C1E70B46024641464846BDE859
:10034000F08B13B54FF000004FF00001AFF30080C9
:10035000BDE81C4070474FF0000200B513469446BC
:100360009646203922BFA0E80C50A0E80C50B1F10D
:100370002001BFF4F7AF090728BFA0E80C5048BF21
:100380000CC05DF804EB890028BF40F8042B08BFBF
:10039000704748BF20F8022B11F0804F18BF00F8BB
:1003A000012B7047704770477047754600F02CF876
:1003B000AE4605006946534620F00700854618B052
:1003C00020B5FFF73FFFBDE820404FF000064FF09B
:1003D00000074FF000084FF0000B21F00701AC467A
:1003E000ACE8C009ACE8C009ACE8C009ACE8C00999
:1003F0008D46704710B50446AFF300802046BDE837
:100400001040FFF70ABF0000004870477406002044
:1004100001491820ABBEFEE726000200704700002D
:10042000464910B54A6822F440324A604A68436837
:100430001A434A6001684A6822F480724A6001687F
:100440004A68036942EA03224A6001684A6822F066
:1004500040724A6001684A6883681A434A600168CA
:100460008A6822F400628A6001688A68C3681A4355
:100470008A60816A6FF07062D14201688A6822F0F6
:1004800070628A6001688A680CD0836A1A438A6045
:1004900001688A6822F040528A6001688A68C36AEB
:1004A0001A4301E022F040528A6001688A6822F013
:1004B00002028A6001688A68037E42EA43028A6017
:1004C00090F82010002901684A680FD042F40062B9
:1004D0004A6001684A6822F460424A6001684A68DA
:1004E000174C436A04EB43331A4301E022F40062E1
:1004F0004A600168CA6A22F47002CA620168CA6A64
:10050000838B104C04EB03531A43CA6201688A6858
:1005100022F400728A6001688A6890F8303042EAFA
:1005200043228A6001688A6822F480628A600168D6
:100530008A68406942EA8020886010BD002301403B
:1005400000E0FFFF0000F0FFFEE7704772B6FEE735
:1005500078B50024009490F83C20012A19D001229B
:1005600080F83C200A6807230568092A13D9EE6839
:100570000A3A02EB420293409E43EE600B788A688F
:100580000A3B03EB43039A400368DD682A43DA60C1
:1005900010E0022078BD2E6902EB420293409E4398
:1005A0002E610B788A6803EB43039A4003681D6948
:1005B0002A431A614A681F23072A13D205686E6B03
:1005C000521E02EB820293409E436E630B790A88AF
:1005D0005B1E92B203EB83039A4003685D6B2A4370
:1005E0005A6327E005680D2A12D22E6BD21F02EB48
:1005F000820293409E432E630B790A88DB1F92B2DE
:1006000003EB83039A4003681D6B2A431A6311E0CE
:10061000EE6A0D3A02EB820293409E43EE620B7942
:100620000A880D3B92B203EB83039A400368DD6AAC
:100630002A43DA62164B0568144A9D4206D10D68BA
:10064000122D03D1556845F48005556005689D421B
:1006500018D10B68102B01D0112B13D1536843F420
:1006600000035360096810290CD10A490A4A096835
:10067000B1FBF2F101EB8101490000E0491E00915C
:100680000029FBD180F83C40002078BD00230140C8
:10069000002001401000002040420F0070B504000F
:1006A0004FF0000503D0206C002610B107E00120B8
:1006B00070BD204600F01CF8666484F83C60206C35
:1006C000C00610D4206C20F4885040F00200206452
:1006D0002046FFF7A5FE6664206C20F0020040F083
:1006E0000100206400E0012584F83C60284670BDCC
:1006F000F0B587B0044614216846FFF72CFE2F4959
:100700002D4F236800242D481439022203252C4E36
:10071000BB4235D1036843F480730360006800F482
:1007200080700590086840F004000860086800F0D8
:1007300004000590086840F001000860086800F0B7
:1007400001000590086840F00200086008686946EA
:1007500000F002000590CDE900250294194800F050
:1007600045F93020CDE9000569460294164800F0AD
:100770003DF90120CDE9000569460294304617E0B5
:10078000124FBB4216D1036843F400730360006844
:1007900000F400700590086840F0020008600868E6
:1007A000694600F002000590CDE90025029430462C
:1007B00000F01CF907B0F0BD0020014044380240B1
:1007C00000040240000802400000024000210140F5
:1007D00070B5040003D094F8200010B104E00120AB
:1007E00070BD204600F082F82068016841F00101E8
:1007F000016000F001FA0546052604E000F0FCF96E
:10080000401B0A2811D820684068C007F6D020682D
:10081000016821F00201016000F0EEF905460BE0ED
:1008200000F0EAF9401B0A2806D9606A40F400305B
:10083000606284F82060D2E7206840688007EFD4C7
:10084000207E0128206801683DD021F080010160F0
:10085000607E01282068016838D021F040010160E5
:10086000A07E01282068016833D021F020010160BA
:10087000E07E0128206801682ED041F0100101605F
:10088000207F01282068016829D021F0080101603B
:10089000607F01282068016824D021F004010160F4
:1008A000D4E902010843D4E9041211430843616802
:1008B000491E08432168C86100206062012084F855
:1008C0002000002070BD41F08001C0E741F04001F0
:1008D000C5E741F02001CAE721F01001CFE741F060
:1008E0000801D4E741F00401D9E70000F0B587B072
:1008F000044614216846FFF72EFD2E4B2E48DFF8E4
:10090000B0E01968D4F800C02B4A03250226092755
:1009100010300024491CF4451AD11960012907D16F
:10092000016841F000710160006800F000700590FE
:10093000106840F0080010601068CDE9005600F023
:100940000800CDE9047069461C48CDE902452BE05A
:10095000DFF86CE0F44529D1D0F800C04CF0806C91
:10096000C0F800C0D0F800C001290CF0806CCDF8B0
:1009700014C0196007D1016841F00071016000687E
:1009800000F000700590106840F0020010601068E0
:1009900002AB00F0020005904FF44050CDE9000694
:1009A00083E8B0006946074800F020F807B0F0BDC2
:1009B000006400400000002030380240000C02407B
:1009C000006800400004024070B5044600F014F9CD
:1009D0000546601C02D004480078044400F00CF97D
:1009E000401BA042FAD370BD040000202DE9F84F4F
:1009F000DFF8BCA10022012503264FF00F090AF100
:100A0000040BAAF1040E00BF0B6805FA02F42340A0
:100A1000A34270D10F7907F00307012F01D0022FF5
:100A200016D187684FEA420806FA08FC27EA0C0745
:100A3000D1F80CC00CFA08FC4CEA070CC0F808C04E
:100A40004768A7430C79C4F3001494403C434460C6
:100A50000C79E443A4070AD0C4684FEA420C06FAB2
:100A60000CF7BC438F6807FA0CF72743C7600C7973
:100A700004F00304022C12D1D40800EB840CDCF83F
:100A800020405707FF0E09FA07F824EA0804D1F8B6
:100A9000108008FA07F848EA0408CCF820800468B7
:100AA0004FEA420C06FA0CF7BC430F7907F0030734
:100AB00007FA0CF7274307604C6814F4403F70D0E6
:100AC0003C4C276847F480472760246822F00307DE
:100AD00004F480440094384C07EB040CDCF808481C
:100AE00097074FEA177809FA08F7BC43334FB84223
:100AF00002D1002724E054E0314FB84201D1012750
:100B00001EE0304FB84201D1022719E02E4FB84203
:100B100001D1032714E02D4FB84201D104270FE083
:100B20002B4FB84201D105270AE02A4FB84201D124
:100B3000062705E0284FB84201D1072700E0082723
:100B400007FA08F72743CCF80878DAF80040574648
:100B5000D1F804C09C435FEACC2C00D51C433C6018
:100B6000DBF800405F46D1F804C09C435FEA8C2C60
:100B700000D51C433C60DEF800407746D1F804C045
:100B80009C435FEA8C3C00D51C433C60084F083F07
:100B90003C68D1F804C09C435FEACC3C00D51C43C0
:100BA0003C60521C102AFFF42FAFBDE8F88F000004
:100BB000083C01404438024000300140000002403F
:100BC0000004024000080240000C024000100240F5
:100BD0000014024000180240001C0240426921EA51
:100BE00002030A4043EA0241816170470AB1816110
:100BF00070470904FBE70000014880687047000067
:100C00000400002070B5040025D094F83D000025B4
:100C100020B984F83C50204600F0B8F8242084F82D
:100C20003D002068016821F0010101602068016831
:100C300041F4004101602068016821F40041016035
:100C400000F04CFA4D4A6168914201D84C4900E0ED
:100C50004C49884201D2012070BD4B492368B0FB4A
:100C6000F1F15E6826F03F060E435E6063689342D2
:100C700006D94FF4967359434FF47A73B1FBF3F1ED
:100C80002368491C1E6A26F03F06314319626168D9
:100C9000914210D84900401EB0FBF1F2521CC2F341
:100CA0000B02042A01D2042022E0B0FBF1F0401C28
:100CB000C0F30B001CE0A268F2B301EBC10303EB2D
:100CC0000116431EB3FBF6F35B1C43F480431B0584
:100CD00049D092B301EBC10202EB0111401EB0FBFF
:100CE000F1F0401CC0F30B0040F4804040F40040A1
:100CF0002168CA694CF6FF739A431043C861D4E96E
:100D0000071001432068026822F0C002114301600D
:100D1000D4E9030101432068826848F2FF339A4313
:100D200011438160D4E9050108432168CA6822F0B3
:100D3000FF021043C86001E00EE016E02068016881
:100D400041F0010101602564202084F83D00256305
:100D500084F83E50002070BD01EB4106431EB3FBFA
:100D6000F6F35B1CB3E70120C2E701EB4101401E33
:100D7000B0FBF1F0401CC0F30B00B7E7A086010008
:100D800080841E0000093D0040420F002DE9F04123
:100D900086B0044614216846FFF7DDFA2F4A216821
:100DA000DFF8BC8000242E4812250326042708F112
:100DB000100891421CD1016841F0020101600068F5
:100DC00002AA00F002000590C020CDE9000582E8EB
:100DD000D00069462348FFF709FED8F8001041F417
:100DE0000011C8F80010D8F8000000F4001031E03D
:100DF0001D4A91422FD1016841F004010160016850
:100E000001F004010591016841F0010101600068F1
:100E1000694600F0010005905015CDE9000502AAD1
:100E2000124882E8D000FFF7E1FD4FF48070CDE971
:100E3000000502AA694682E8D0000D48FFF7D6FDFA
:100E4000D8F8001041F40001C8F80010D8F80000EC
:100E500000F40000059006B0BDE8F08100540040A9
:100E60003038024000040240005C004000080240AC
:100E70000000024002488168027811448160704796
:100E8000040000200B4810B5016841F400710160B6
:100E9000016841F480610160016841F48071016082
:100EA000032000F06FF80F2000F006F800F024F89F
:100EB000002010BD003C024070B50D4D04464FF4BB
:100EC0007A712878B1FBF0F00A490968B1FBF0F0BB
:100ED00000F0B0FB48B9102C07D200222146501E6A
:100EE00000F030F800206C6070BD012070BD000083
:100EF00004000020100000200A4808B5016841F4F1
:100F000080410160006800F4804000900548001FA7
:100F1000016841F080510160006800F0805000904D
:100F200008BD000044380240002809DB00F01F0221
:100F3000012191404009800000F1E020C0F800113B
:100F400070470000F0B40E4B1B680C46C3F302233D
:100F5000C3F10705042D00D90425191D072901D265
:100F6000002300E0DB1E012606FA05F1491E2140A0
:100F700099409E40761E16403143F0BC02F04DB9B8
:100F80000CED00E0064900F0070208684FF6FF0389
:100F9000184040EA0220034A1043086070470000EE
:100FA0000CED00E00000FA052DE9F0470E460500C3
:100FB00065D0DFF81481D8F80000F7B200F0070020
:100FC000B04207D288F80070D8F8000000F007009F
:100FD000B04254D128683D4C810712D5400703D553
:100FE000206840F4E05020602878000703D520688E
:100FF00040F4604020602068A96820F0F0000843B9
:1010000020602878C0072DD0304968680839012849
:1010100012D0022813D0032811D0096889070029AB
:101020002DDA216821F0030101432160FFF7E4FD7F
:10103000814641F2883A0EE009688903EFE70968C2
:101040008901ECE7FFF7D8FDA0EB0901514502D972
:101050000320BDE8F0872068696800F00C00B0EB61
:10106000810FEFD1D8F80010404601F00701B142DE
:1010700007D90770006800F00700B04201D00120D6
:10108000E7E72878400705D52068E96820F4E050B4
:10109000084320602878000706D52068296920F4D5
:1010A000604040EAC100206000F038F82168084A3A
:1010B000C1F30311515CC840064908600648006846
:1010C000FFF7FAFE0020C4E7003C02400838024067
:1010D000E6320008100000200800002004480549FE
:1010E00000680968044AC1F38221515CC840704716
:1010F0001000002008380240F63200080448054974
:1011000000680968044AC1F34231515CC840704725
:101110001000002008380240F6320008154810B5CB
:10112000006810F00C02144813D04110042A0FD0AC
:10113000082A0ED10F4C241F2268236802F03F02B8
:101140005B0207D52068C0F38810A0FB010106E010
:10115000084610BD2168C1F38811A1FB00010023DE
:10116000FFF782F82168C1F30141491C4900B0FB37
:10117000F1F010BD083802400024F4002DE9F84FCA
:1011800004006ED02078DFF84C93C007A9F1040565
:101190004AD009F104000168C1F38101012908D096
:1011A0000068C0F3810002280AD1D9F8000040028B
:1011B00006D52868800337D560680028E1D033E081
:1011C0006068B0F5803F10D0B0F5A02F286810D02F
:1011D00020F480302860286820F48020286060682F
:1011E000A8B1FFF709FD06460DE0286840F48030FD
:1011F000F4E740F480202860F7E700BFFFF7FCFC2D
:10120000801B642873D828688003F7D50CE0FFF7AB
:10121000F3FC064605E000BFFFF7EEFC801B6428E8
:10122000F0D828688003F7D42078DFF8AC828007F4
:101230004FF0000A3ED5A748001D016811F00C0FC1
:1012400008D00068C0F3810002280BD1D9F8000053
:10125000400207D42868800716D5E068012800D12D
:1012600012E033E1E068B8B10120C8F80000FFF7F0
:10127000C3FC064605E000BFFFF7BEFC801B02284A
:10128000C0D828688007F7D52868216920F0F800C1
:1012900040EAC10028600DE0C8F800A0FFF7ACFCF0
:1012A000064604E0FFF7A8FC801B02281FD8286828
:1012B0008007F7D42078000722D5864F87486169D8
:1012C000703771B101210160FFF796FC064604E01A
:1012D000FFF792FC801B022809D838688007F7D5F1
:1012E0000EE0C0F800A0FFF787FC064605E082E0AC
:1012F000FFF782FC801B02287DD838688007F7D46E
:101300002078400768D5DFF8CCB100270BF13C0B03
:10131000DBF80000C0000BD4DBF8001041F0805176
:10132000CBF80010DBF80000012700F0805000909F
:101330006B4E3068C00510D4306840F48070306067
:10134000FFF75AFC009005E0FFF756FC0099401AA1
:10135000022850D83068C005F6D55E4EA0686C36BD
:1013600001280FD00528306810D020F0010030602F
:10137000306820F004003060A068B8B1FFF73CFC92
:1013800000900FE0306840F00100F4E740F0040006
:101390003060F7E7FFF730FC0099411A41F28830DE
:1013A000814266D830688007F4D50EE0FFF724FC50
:1013B000009007E0FFF720FC0099411A41F28830C5
:1013C000814256D830688007F4D42FB1DBF8001082
:1013D00021F08051CBF80010A069C8B33D49091D28
:1013E0000968C1F3810102294AD00228504607D07A
:1013F000C8F8600000E03CE0FFF7FEFB04463BE07D
:101400004746C8F86000FFF7F7FB064605E000BF57
:10141000FFF7F2FB801B02282BD828688001F7D445
:10142000D4E907010843A16A2E4A490802EB0141A9
:10143000626A41EA8211084394F82C1040EA016183
:10144000C9F8001001203866FFF7D6FB044606E015
:101450003EE000BFFFF7D0FB001B022809D8286838
:101460008001F7D534E000BFFFF7C6FB001B022860
:1014700002D90320BDE8F88F28688001F4D427E062
:101480000128F7D0D9F80000E26900F48001914208
:101490001CD1226A00F03F01914217D147F6C0717A
:1014A000626A0140B1EB821F10D1A26A4FF0FF3394
:1014B00000F4403103EB5202B1EB024F06D194F835
:1014C0002C1000F07060B0EB016F01D00120D1E76B
:1014D0000020CFE70438024000004742800E474218
:1014E000007000400000FFFF70B5040009D0606A82
:1014F000002540B125616561A56294F8510040B1B5
:101500000CE0012070BD6068B0F5827FF4D0E56129
:10151000F2E784F85050204600F044F8022084F8A6
:1015200051002068016821F040010160A0882189F4
:1015300000F4827001F404410843A18901F40061C0
:101540000843217C01F002010843217D01F00101E3
:101550000843218B01F400710843217F01F0380119
:10156000084394F8201001F080010843218D01F414
:101570000051084321680860A069042101EA104075
:1015800094F8241001F01001084321684860206895
:10159000C16921F40061C1616565012084F85100D1
:1015A000002070BDF0B587B0044614216846FEF7F0
:1015B000D2FE1C492068884232D11B4800240168B1
:1015C00041F480410160006800F4804005901648B5
:1015D0001038016841F004010160016801F0040164
:1015E0000591016841F0020101600068022500F0E8
:1015F000020005900C20CDE9000502AA032605276C
:1016000082E8D00069460948FFF7F0F96802CDE9A1
:10161000000502AA694682E8D0000548FFF7E6F90E
:1016200007B0F0BD003800404038024000080240DA
:101630000004024010B5401EB0F1807F01D30120AC
:1016400010BD4FF0E02460610F21601701F0E5FD4F
:101650000020A06107202061002010BD7047704766
:1016600010B590F83C20012A22D0012280F83C20BD
:10167000CA688C6822F4407222434C6822F480626B
:1016800022430C6822F4006222430C6922F4805247
:1016900022434C6922F400522243C969002322F4F8
:1016A00080420A4301684A6480F83C30002010BD43
:1016B000022010BD70B590F83C20012A32D00124E0
:1016C00080F83C40022280F83D2003685A689D68FB
:1016D00022F070060A6832435A60134B02689A423D
:1016E00014D0B2F1804F11D0104B9A420ED0104B53
:1016F0009A420BD00F4B9A4208D00F4B9A4205D01A
:101700000E4B9A4202D00E4B9A4204D1496825F002
:1017100080031943916080F83D40002180F83C101F
:10172000084670BD022070BD00000140000400406A
:1017300000080040000C004000040140004001404F
:101740000018004010B5040003D094F83D0010B11B
:1017500007E0012010BD002084F83C00204600F086
:101760001FF8022084F83D00211D206801F012FBC3
:10177000012084F8460084F83E0084F83F0084F895
:10178000400084F8410084F8420084F8430084F863
:10179000440084F8450084F83D00002010BD00009E
:1017A00008B501682248234A814211D1106840F0EF
:1017B000100010601068002200F010000090114628
:1017C0003620FFF7BFFBBDE808403620FFF7ACBB73
:1017D0001848194B001D994207D1016841F00201D8
:1017E0000160006800F0020009E0144B994208D142
:1017F000016841F400310160006800F4003000909D
:1018000008BD0F4B994207D1016841F48021016066
:10181000006800F48020F2E70A488142F0D11068A5
:1018200040F040001060106800F04000E7E7000062
:1018300000100040403802400004014000440140D4
:10184000004801400018004070B5044690F83C0084
:101850000025012817D0012684F83C60022084F876
:101860003D002068826822F0770222F47F42826085
:101870000868502838D00DDC20284FD005DC90B304
:10188000102811D14AE0022070BD302846D04028EF
:101890000AD13BE060282FD070280DD0B0F5805FD2
:1018A00003D0B0F5005F12D0012584F83D60002020
:1018B00084F83C00284670BDCB68D1E9012120683E
:1018C00001F0D0FA2068816841F0770109E0CB6827
:1018D000D1E90121206801F0C5FA2068816841F44E
:1018E00080418160E1E719E0CA684968206801F039
:1018F0008DFB5021206806E0CA684968206801F025
:10190000D7FB6021206801F0B7FACEE7CA684968C2
:10191000206801F07BFB40212068F4E72268014643
:101920001046F0E72DE9F0410D46040003D094F88D
:101930003D0018B108E00120BDE8F081002084F8E6
:101940003C00204600F040F8022084F83D0020686A
:10195000816844F2070291438160211D206801F0F3
:1019600019FA226890689169166A2B68AF69034377
:1019700040F20330814341EA0721A868EF69084338
:101980004FF6FC418843E96840EA07200143286993
:101990002F6A000140EA0730084369686D6926F044
:1019A000AA0646EA0515294393602268906154F817
:1019B000460B0162012004F81F09E0752076E076ED
:1019C0002077A0750020B7E770B586B004461421D3
:1019D0006846FEF7C0FC3D48256800223C490224C9
:1019E0000126854219D13A481430036843F00103B7
:1019F0000360006800F001000590086840F01000E6
:101A000008600868694600F0100005904FF42060F7
:101A10000090CDE901422F4833E02D4B2E48103382
:101A2000B5F1804F18D02D4EB54231D11D6845F02B
:101A300002051D601B6803F0020305930B6843F069
:101A400001030B60096801F001010591C0210091BB
:101A5000CDE90142694635E01D6845F001051D608C
:101A60001B6803F0010305930B6843F001030B604F
:101A7000096801F00101059103210091CDE90142BE
:101A80006946CDE9032600BFFEF7B0FF06B070BD82
:101A900013488542FAD1186840F0040018601868AD
:101AA00000F004000590086840F00800086008682D
:101AB000694600F0080005904FF440500090CDE9D1
:101AC00001420848CDE90324DEE7000000000140A0
:101AD0003038024000100240000002400004004084
:101AE00000080040000C024070472DE9F041054617
:101AF00090F83C0000260C46012810D0012085F803
:101B00003C0072B1042A1CD0082A2CD00C2A50D0D8
:101B10000126002085F83C003046BDE8F081022017
:101B2000FBE7D4E90012E368286801F081FA28682D
:101B3000816921F00C01816128688169A2681143E3
:101B40000FE0D4E90012E368286801F0C3FA2868BE
:101B5000816921F44061816128688169A26841EA54
:101B600002218161D5E72868D4E9002C277B036A2C
:101B7000016A21F480710162C16923F4206321F0BC
:101B8000030141EA0C0121F0F00C39074FF4206702
:101B90004CEA116107EA02221A43C1610262286815
:101BA000C16921F00C01C1612868C169A2681143B3
:101BB0002BE02868D4E90021E768036AD0F820C048
:101BC0002CF4805CC0F820C0D0F81CC023F4204363
:101BD0002CF4407C4CEA012121F4704C4FF6FF714B
:101BE00001EA07314FF4204741EA0C0107EA0232CB
:101BF0001A43C16102622868C16921F44061C16170
:101C00002868C169A26841EA0221C16181E710B573
:101C1000040003D094F83D0010B107E0012010BD8E
:101C2000002084F83C00204600F01EF8022084F8D2
:101C30003D00211D206801F0ADF8012084F8460028
:101C400084F83E0084F83F0084F8400084F84100A6
:101C500084F8420084F8430084F8440084F8450086
:101C600084F83D00002010BD10B586B00446142154
:101C70006846FEF770FB1349206888421FD112485E
:101C80000021026842F480320260006800F4803073
:101C900005900D481438026842F010020260006896
:101CA00000F010000590202000900220CDE90101F5
:101CB0000320CDE9031069460448FEF797FE06B0FD
:101CC00010BD0000004001404438024000100240B6
:101CD0002DE9F04104460068C66805694FF0000729
:101CE000A90713D5B10711D5F91E0161012020778D
:101CF000206880698007204602D0FFF7F5FE04E0E7
:101D000000F013F9204600F0D3F92777680716D5BD
:101D1000700714D521686FF0040008610220207755
:101D20002068806910F4407F204602D0FFF7DCFE77
:101D300004E000F0FAF8204600F0BAF92777280707
:101D400015D5300713D521686FF00800086104200D
:101D500020772068C0698007204602D0FFF7C4FEC4
:101D600004E000F0E2F8204600F0A2F92777E80648
:101D700016D5F00614D521686FF010000861082010
:101D800020772068C06910F4407F204602D0FFF71A
:101D9000ABFE04E000F0C9F8204600F089F927778F
:101DA000E80708D0F00706D021686FF0010008614D
:101DB000204600F07EF9280608D5300606D52168B1
:101DC0006FF0800008612046FFF748FC680608D5E0
:101DD000700606D521686FF040000861204600F0CB
:101DE00069F9A8060AD5B00608D521686FF0200069
:101DF00008612046BDE8F041FFF731BCBDE8F08145
:101E0000F0B587B0044614216846FEF7A4FA2B48C3
:101E1000246800222A4986150223032584420FD113
:101E2000086840F00400086008680096CDE90132B7
:101E300000F00400CDE9045069460392214811E006
:101E4000214F2248BC4211D10C6844F002040C60BE
:101E500009680096CDE9013201F00201CDE9045193
:101E6000039228E0FEF7C2FD07B0F0BD184EB44261
:101E70000FD10C6844F002040C60096801F0020103
:101E8000059171150091CDE90132CDE9032569462F
:101E9000E8E7104DAC42E7D10C6844F002040C6056
:101EA000096801F002010591E9000091CDE90132D4
:101EB0000921CDE903216946D4E70000000401406F
:101EC0003038024000080240004401400004024053
:101ED000004801400018004070B5044690F83C00EE
:101EE000002501280FD0012084F83C006AB1042AA3
:101EF0000FD0082A11D00C2A13D00125002084F815
:101F00003C00284670BD022070BD206800F0BCFF78
:101F1000F4E7206800F0E8FFF0E7206801F01AF825
:101F2000ECE7206801F04AF8E8E7704710B50400D4
:101F300003D094F83D0010B107E0012010BD00204F
:101F400084F83C00204600F01EF8022084F83D0092
:101F5000211D206800F01EFF012084F8460084F84F
:101F60003E0084F83F0084F8400084F8410084F883
:101F7000420084F8430084F8440084F8450084F863
:101F80003D00002010BD704770B5044690F83C003D
:101F900000260D4601280FD0012084F83C006AB1CC
:101FA000042A1DD0082A2FD00C2A3FD00126002059
:101FB00084F83C00304670BD022070BD206800F0FF
:101FC00063FF2068816941F00801816120688169AF
:101FD00021F004018161206881692A69114311E0BF
:101FE000206800F081FF2068816941F4006181610F
:101FF0002068816921F480618161206881692A6992
:1020000041EA02218161D2E7206800F0A3FF206845
:10201000C16941F00801C1612068C16921F0040172
:10202000C1612068C1692A69114311E0206800F08C
:10203000C5FF2068C16941F40061C1612068C169C0
:1020400021F48061C1612068C1692A6941EA0221E5
:10205000C161ACE710B5040003D094F83D0010B1A5
:1020600007E0012010BD002084F83C00204600F06D
:102070001EF8022084F83D00211D206800F08AFE31
:10208000012084F8460084F83E0084F83F0084F87C
:10209000400084F8410084F8420084F8430084F84A
:1020A000440084F8450084F83D00002010BD7047CE
:1020B00070477047704770B5040004D094F8410031
:1020C000002510B106E0012070BD84F84050204684
:1020D00000F024F8242084F841002068C16821F42D
:1020E0000051C160204601F011F82068016921F417
:1020F000904101612068416921F02A014161206815
:10210000C16841F40051C1606564202084F8410039
:1021100084F842006563002070BD00002DE9F04F97
:1021200087B0044614216846FEF715F96B49DFF8BD
:10213000A8C123680024694A10390225032608270C
:102140006748634514D1136843F400231360126891
:1021500002F4002205920A6842F004020A6009684B
:1021600001F004010591B102CDE9001569462CE0AA
:10217000DFF870C1DFF870B163452ED1136843F406
:1021800080131360126802F4801205920A6842F00C
:1021900004020A600A6802F0040205920A6842F02A
:1021A00008020A60096802AB01F0080105914FF4CA
:1021B0008051CDE9001583E8D0006946FEF716FC92
:1021C0000420CDE900056946584602AB83E8D000FB
:1021D000FEF70CFC07B0BDE8F08FDFF81081DFF8E8
:1021E000FC90DFF80CA109F104094FF0070C4345FE
:1021F0001CD1D9F8002042F01002C9F80020D9F80B
:10220000000000F010000590086840F00100086030
:10221000086802AA00F0010005904FF4C060CDE903
:10222000000582E8501069465046D1E7DFF8C480C7
:10223000434515D1106840F400301060106800F478
:1022400000300590086840F00100086008686946A1
:1022500000F0010005900C20CDE90005504619E082
:10226000DFF89480434519D1106840F48020106055
:10227000106800F480200590086840F008000860AD
:102280000868694600F0080005904FF44070CDE9F9
:102290000005584602AB83E8501099E7174A93426D
:1022A00098D1D9F8003043F02003C9F80030D9F8AC
:1022B000002002F0200205920A6842F004020A603F
:1022C000096802AA01F004010591C021CDE90015B9
:1022D00082E8D00069467BE7004C0040403802406D
:1022E0000008024000500040000C02400010014075
:1022F000000002400044004000480040001401403B
:10230000FEE7000001280BD002280DD003280FD0D3
:10231000042811D100220948402100BFFEF766BC05
:10232000012204210648F9E7002201210548F5E7CA
:10233000002202210448F1E770470000000C02402F
:1023400000040240000802400010024001280BD0A7
:1023500002280DD003280FD0042811D101220948EA
:10236000402100BFFEF742BC002204210648F9E7E5
:10237000012211460548F5E7012202210448F1E750
:1023800070470000000C02400004024000080240B8
:1023900000100240012809D002280AD003280BD0DF
:1023A00004280CD140210648FEF718BC042105483A
:1023B000FAE701210448F7E702210448F4E77047EF
:1023C000000C0240000402400008024000100240DD
:1023D0007FB5002415480094019402941249039497
:1023E00001604FF48031C0E901140461047680F883
:1023F00020400F49C0E90A140125C561C46080F876
:1024000030404561FEF74AF908B1FEF79FF8042015
:10241000CDE90005694602940448FEF799F80028C2
:1024200001D0FEF793F87FBD00200140140000208A
:102430000100000F7FB50024154800940194029418
:102440001249039401604FF48031C0E90114046122
:10245000047680F820400F49C0E90A140125C561BF
:10246000C46080F830404561FEF718F908B1FEF706
:102470006DF80920CDE90005694602940448FEF78D
:1024800067F8002801D0FEF761F87FBD0021014008
:102490005C0000200100000F0D4810B50B490160E1
:1024A0001021416000218160C160016141610176BC
:1024B00041768176C17601774177FEF789F9002868
:1024C00003D0BDE81040FEF741B810BD00640040E5
:1024D000A40000200D4810B50B4901601021416097
:1024E00000218160C16001614161017641768176A0
:1024F000C17601774177FEF76BF9002803D0BDE87C
:102500001040FEF723B810BD00680040CC0000204A
:102510002DE9F04F87B014216846FDF71CFF4948AC
:102520000024016841F010010160016801F0100110
:102530000591016841F004010160016801F00401A6
:102540000591016841F080010160016801F080019E
:102550000591016841F001010160016801F001018C
:102560000591016841F002010160016801F002017A
:102570000591016841F0080101600068DFF8C8803A
:1025800000F0080040F242450590002229464046EE
:10259000FEF72CFBDFF8B49042F211060022314620
:1025A0004846FEF723FBDFF8A8A00022042150468E
:1025B000FEF71CFBDFF89CB04FF48B670022394616
:1025C0005846FEF713FB00950125CDE901546946F5
:1025D00040460394FEF70AFA0096CDE90154694695
:1025E00048460394FEF702FA2020CDE9000469462C
:1025F00048460294FEF7FAF904200090CDE9015410
:10260000694650460394FEF7F1F98120CDE90004B4
:10261000694640460294FEF7E9F90097CDE9015476
:10262000694658460394FEF7E1F9802000904FF484
:102630008810CDE9010469465846FEF7D7F907B07E
:10264000BDE8F08F30380240001002400008024020
:1026500000040240000C02400D4810B50B49016017
:102660000C49416000214FF480428160C0E90312AF
:1026700041618161C1610162FEF7C4FA002803D0A3
:10268000BDE81040FDF762BF10BD000000540040DF
:10269000F4000020A08601000D4810B50B49016030
:1026A0000C49416000214FF480428160C0E903126F
:1026B00041618161C1610162FEF7A4FA002803D083
:1026C000BDE81040FDF742BF10BD0000005C0040B7
:1026D00048010020A08601000F4810B50D49016097
:1026E0004FF48271416000218160C1604FF400723B
:1026F0000161C0E90512C1610162416281620A2182
:10270000C162FEF7F1FE002803D0BDE81040FDF7DE
:102710001DBF10BD003800409C01002010B588B0DE
:102720001C216846FDF717FE144813490024C0E930
:1027300000144FF6FF71C0E9024104618461FFF7A4
:1027400001F808B1FDF702FF0C48FFF783FC08B160
:10275000FDF7FCFE6020CDE90004029400226946EA
:1027600006480494FFF710FC08B1FDF7EFFE03489C
:10277000FFF746FB08B010BD00440140EC03002009
:1027800010B588B01C216846FDF7E5FD14481349D3
:102790000024C0E900144FF6FF71C0E90241046152
:1027A0008461FEF7CFFF08B1FDF7D0FE0C48FFF7BC
:1027B00051FC08B1FDF7CAFE6020CDE90004029487
:1027C0000022694606480494FFF7DEFB08B1FDF7D6
:1027D000BDFE0348FFF714FB08B010BD00480140E0
:1027E0003404002010B58CB0002407940894099498
:1027F0001C2168460A94FDF7AEFD1D481B49C0E93F
:1028000000144FF6FF71C0E9024104618461FEF7D4
:1028100099FF08B1FDF79AFE4FF48050079007A981
:102820001348FFF711F808B1FDF790FE1048FFF7C5
:1028300011FC08B1FDF78AFE6020CDE90004029486
:10284000002269460A480494FFF79EFB08B1FDF791
:102850007DFE042269460648FFF796FB08B1FDF7A6
:1028600075FE0348FFF7CCFA0CB010BD001800400D
:102870007C04002010B58CB024216846FDF76BFD68
:1028800000241648099414490A94C0E900144FF62C
:10289000FF71C0E902410461446184610120CDE916
:1028A0000004CDE902040494CDE90540079469468B
:1028B0000A480894FFF736F808B1FDF747FE099477
:1028C00009A906480A94FEF7F5FE002801D0FDF795
:1028D0003DFE0CB010BD000000000140F4010020DE
:1028E00010B58CB024216846FDF735FD002414484E
:1028F00009944FF080410A94C0E90014611EC0E9B8
:102900000241046184610120CDE90004CDE90204A3
:102910000494CDE905400794694609480894FFF7F7
:1029200001F808B1FDF712FE099409A904480A94B8
:10293000FEF7C0FE002801D0FDF708FE0CB010BD68
:102940003C02002010B58CB024216846FDF703FD41
:1029500000241548099413490A94C0E900144FF65D
:10296000FF71C0E90241046184610120CDE90004E6
:10297000CDE902040494CDE90540079469460A486C
:102980000894FEF7CFFF08B1FDF7E0FD099409A90F
:1029900005480A94FEF78EFE002801D0FDF7D6FD0B
:1029A0000CB010BD000400408402002010B58CB0B3
:1029B00024216846FDF7CFFC0024154809941349EB
:1029C0000A94C0E900144FF6FF71C0E902410461A6
:1029D00084610120CDE90004CDE902040494CDE92D
:1029E0000540079469460A480894FEF79BFF08B122
:1029F000FDF7ACFD099409A905480A94FEF75AFEB3
:102A0000002801D0FDF7A2FD0CB010BD0008004069
:102A1000CC0200201CB500240E4800940C490194FF
:102A2000C0E900144FF6FF71C0E9024180218161C5
:102A3000FEF788FE08B1FDF789FD00946946054858
:102A40000194FEF737FE002801D0FDF77FFD1CBD85
:102A5000001000401403002010B596B000240F941D
:102A600010941194129413941C2108A81494FDF747
:102A700072FC20216846FDF76EFC27482549C0E915
:102A800000144FF6FF71C0E90241046144618461A2
:102A9000FEF758FE08B1FDF759FD4FF480500F9036
:102AA0000FA91D48FEF7D0FE08B1FDF74FFD1A48EB
:102AB000FFF73CFA08B1FDF749FD139413A9164836
:102AC0001494FEF7F7FD08B1FDF740FD0894099452
:102AD0000A940B940C940D94082208A90E480E94A5
:102AE000FFF7FAF908B1FDF731FD00944FF40050FB
:102AF000CDE9044002940194039469460648079482
:102B0000FEF7AEFD08B1FDF721FD0348FFF778F9A8
:102B100016B010BD000401405C0300201FB5002466
:102B2000174800940194029414490394C0E90014D6
:102B30004FF6FF71C0E9024104618461FFF767F855
:102B400008B1FDF703FD0120CDE900400294002209
:102B500069460B480394FEF7C8FF08B1FDF7F6FC81
:102B6000022000900190042269460548FEF7BDFF4F
:102B7000002801D0FDF7EAFC1FBD00000040014025
:102B8000A40300200C4810B50A4901604FF4E1315C
:102B90004160002181600C22C160C0E904128161A2
:102BA000C161FFF788FA002803D0BDE81040FDF7A7
:102BB000CDBC10BD004C0040C40400200C4810B532
:102BC0000A4901604FF4E1314160002181600C222B
:102BD000C160C0E904128161C161FFF76CFA00288D
:102BE00003D0BDE81040FDF7B1BC10BD005000405F
:102BF0000C0500200C4810B50A4901604FF4E13182
:102C00004160002181600C22C160C0E90412816131
:102C1000C161FFF750FA002803D0BDE81040FDF76E
:102C200095BC10BD00100140540500200C4810B5A3
:102C30000A4901604FF4E1314160002181600C22BA
:102C4000C160C0E904128161C161FFF734FA002854
:102C500003D0BDE81040FDF779BC10BD0044004032
:102C60009C0500200C4810B50A4901604FF4E13181
:102C70004160002181600C22C160C0E904128161C1
:102C8000C161FFF718FA002803D0BDE81040FDF736
:102C90005DBC10BD00480040E40500200C4810B5A4
:102CA0000A4901604FF4E1314160002181600C224A
:102CB000C160C0E904128161C161FFF7FCF900281D
:102CC00003D0BDE81040FDF741BC10BD0014014029
:102CD0002C060020FEE7FEE770477047FEF7CAB8F3
:102CE00030B593B030216846FDF735FB14210CA8B0
:102CF000FDF731FB1E480025016841F0805101605D
:102D0000006800F0805011901A48016841F4804139
:102D100001600068022400F48040119001200090BE
:102D2000000401908001CDE90640082008904FF48E
:102D3000A870CDE9090404200B906846FEF71EFA3E
:102D400008B172B6FEE70CA90F2081E831004FF4FC
:102D5000A0500F904FF48050109005210CA8FEF762
:102D600023F9002801D072B6FEE713B030BD000091
:102D700040380240007000400248016841F4700190
:102D80000160704788ED00E00148FEF7A1BF000038
:102D900014030020F0B50268274B284D284E294F18
:102DA000294C4FF0804C984209D0604507D0A8428A
:102DB00005D0B04203D0B84201D0A04204D122F0E5
:102DC000700E4A6842EA0E0298421BD0604519D044
:102DD000A84217D0B04215D0B84213D0A04211D0AB
:102DE0001A4DA8420ED01A4DA8420BD0194DA84238
:102DF00008D0194DA84205D0184DA84202D0184D50
:102E0000A84203D122F44075CA682A434D6922F0D2
:102E100080022A438D68C5620D688562984201D0A0
:102E2000A04201D109690163016841F00401016018
:102E3000012141610260F0BD00000140000400403A
:102E400000080040000C0040000401400040014028
:102E5000004401400048014000180040001C0040B0
:102E60000020004010B5846842EA032224F47F4425
:102E70000A432243826010BD826822F070020A4336
:102E800042F0070181607047F0B5036A026A22F0E0
:102E90000102026242688469124E24F073050C68D4
:102EA0002C4323F002058B682B430D4DA84201D023
:102EB000B04205D123F00807CB683B4323F004035D
:102EC000A84201D0B04205D14D6922F440721543A9
:102ED0008A692A4342608461496841630362F0BDA4
:102EE0000000014000040140F0B5026A036A23F0CB
:102EF00010030362436884690D6824F4E64444EADD
:102F000005248D6822F0200242EA05120F4D104E72
:102F1000A84201D0B04206D1CF6822F0800242EA36
:102F2000071222F04002A84201D0B04207D14D69F9
:102F300023F4406343EA85038D6943EA85034360D4
:102F40008461496881630262F0BD000000000140B5
:102F500000040140F0B5026A036A23F4807303623F
:102F60004368C46922F4007224F073050C68124EA1
:102F70002C438D6842EA05220E4DA84201D0B04292
:102F800006D1CF6822F4006242EA072222F480626E
:102F9000A84201D0B04207D14D6923F4405343EA1F
:102FA00005138D6943EA05134360C4614968C16331
:102FB0000262F0BD000001400004014030B5046A27
:102FC000026A22F4805202624268C3690D6823F4E7
:102FD000E64343EA05238D6824F4005444EA0534AB
:102FE000084DA84202D0084DA84204D14D6922F4F0
:102FF000804242EA85124260C3614968016404620A
:1030000030BD0000000001400004014010B5036A1B
:10301000046A24F001040462846924F0F00444EAA0
:10302000021423F00A020A438461026210BD000008
:1030300070B5056A046A24F0010404628469154EBF
:10304000B04214D0B0F1804F11D0134EB0420ED028
:10305000124EB0420BD0124EB04208D0114EB042C8
:1030600005D0114EB04202D0104EB04203D124F030
:103070000304144301E044F001041A0724F0F004AF
:1030800044EA126225F00A0301F00A011943826141
:10309000016270BD000001400004004000080040D3
:1030A000000C0040000401400040014000180040B6
:1030B00010B5036A046A24F010040462846923F0E2
:1030C000A00324F4704444EA023243EA011182610D
:1030D000016210BD30B5046A056A25F0100505626D
:1030E000856925F4407545EA022222F470454FF6C1
:1030F000FF7202EA033224F0A0032A43A02404EA68
:10310000011119438261016230BD000070B50446AF
:1031100000680169E26821F44051114301612169AD
:10312000A068E26908436169114308432168CA68DD
:1031300049F20C639A430243CA6020684169A2695C
:1031400021F440711143416131492068884202D025
:103150003049884202D1FDF7D1FF01E0FDF7BEFF03
:10316000E2690023192164253226B2F5004F626816
:1031700028D0A0FB0101930F9200FDF775F80146DE
:10318000B0FBF5F06FF01802504301EB800006EB46
:103190000010B0FBF5F000F0F002B1FBF5F002EB2F
:1031A0000012B1FBF5F06FF01803584301EB8000FB
:1031B00006EB0010B0FBF5F000F00F0021681044A2
:1031C000886070BDA0FB010192185B41FDF74CF8CF
:1031D0000146B0FBF5F00201B1FBF5F06FF018030A
:1031E000584301EB800006EBC000B0FBF5F000F0A7
:1031F000F80002EB4002B1FBF5F0584301EB800010
:1032000006EBC000B0FBF5F000F00700D6E70000C9
:103210000010014000140140FEE70907090E0028D4
:1032200004DB00F1E02080F80014704700F00F008C
:1032300000F1E02080F8141D7047FDF723FEFFF732
:103240004FFDFFF765F9FFF707FAFFF725FAFFF7DC
:1032500099FCFFF7B3FCFFF7CDFCFFF7E7FCFFF7A6
:1032600001FDFFF71BFDFFF717F9FFF733F9FFF734
:1032700001FBFFF735FBFFF765FBFFF797FBFFF758
:10328000C9FBFFF7E9FBFFF749FCFFF747FAFFF738
:1032900077FAFFF7A7FAFFF71FFAFFF799F8FFF79A
:1032A000C9F84FF4FA744FF496750120FFF74EF801
:1032B0002046FDF789FB0120FFF724F82046FDF7A3
:1032C00083FB0220FFF766F80320FFF763F8042072
:1032D000FFF760F82846FDF777FBE6E74FF0407010
:1032E000E1EE100A7047000000000000000001023B
:1032F000030406070809000000000102030400009F
:10330000203300080000002014000000C401000861
:103310003433000814000020C40C0000E001000851
:10332000000000000100000010000000000000008C
:043330000024F40081
:040000050800018965
:00000001FF
