:020000040800F2
:100000000012002055020008D94500086936000892
:10001000D5450008D10400088D59000800000000F3
:100020000000000000000000000000000155000872
:10003000D504000800000000FD5400080555000824
:100040006F0200086F0200086F0200086F020008CC
:100050006F0200086F0200086F0200086F020008BC
:100060006F0200086F0200086F0200086F020008AC
:100070006F0200086F0200086F0200086F0200089C
:100080006F0200086F0200086F0200086F0200088C
:100090006F0200086F0200086F0200086F0200087C
:1000A0006F0200086F0200086F0200086F0200086C
:1000B0006F0200086F0200086F0200086F0200085C
:1000C0006F0200086F0200086F0200086F0200084C
:1000D0006F0200086F020008115900086F02000843
:1000E0006F0200086F0200086F0200086F0200082C
:1000F0006F0200086F0200086F0200086F0200081C
:100100006F0200086F0200086F0200086F0200080B
:10011000115700086F020008C95500086F02000857
:100120006F0200086F0200086F0200086F020008EB
:100130006F0200086F0200086F0200086F020008DB
:100140006F0200086F0200086F0200086F020008CB
:100150006F0200086F0200086F0200086F020008BB
:100160006F0200086F0200086F0200086F020008AB
:100170006F0200086F0200086F0200080000000014
:100180006F0200086F02000800F002F800F052F859
:1001900014A696E8000CB244B344DA4501D100F04D
:1001A00049F8BAE80F000FA696E83000A5EB040561
:1001B00004EB0607AAEB0704A7F101074FEA1515A0
:1001C0004FEA3414A4F10104AC4201D300F032F838
:1001D00013F0010F18BFFB1A43F0010300F001F800
:1001E000DBE71847A0660000C0660000103A24BF95
:1001F00078C878C1FAD8520724BF30C830C144BF8C
:1002000004680C6070470000704700000023002461
:1002100000250026103A28BF78C1FBD8520728BF16
:1002200030C148BF0B6070471FB505F07AFE1FBD97
:1002300010B510BD00F017F91146FFF7F5FF05F0F6
:100240001BFD00F035F903B4FFF7F2FF03BC00F02B
:1002500039F900000948804709480047FEE7FEE7F2
:10026000FEE7FEE7FEE7FEE7FEE7FEE7FEE7FEE766
:1002700004480549054A064B70470000B55500087B
:1002800089010008000C002000120020000E002050
:10029000000E002053EA020C00F069802DE9F04BBB
:1002A0004FF00006002B1FBFB3FA83F503FA05F4E5
:1002B00024FA05F65E4012BF1643B2FA82F502FA3E
:1002C00005F4C5F120051EBF22FA05FC44EA0C0422
:1002D000203556EA044C4FEA144418BF641C4FF012
:1002E00000084FF00009904271EB030C39D300294C
:1002F00019BFB1FA81F701FA07F6B0FA80F700FAF0
:1003000007F6C7F120071EBF20FA07FC46EA0C06D5
:100310002037B6FBF4FCA7EB0507103F07F01F0BD7
:10032000CBF120062CFA06F60CFA0BFB44BFB346C1
:100330000026202FA4BF5E464FF0000B5BEA060CA0
:1003400008BF4FF0010B19EB0B0948EB0608ABFB9C
:10035000027C06FB02CC0BFB03CCC01B71EB0C0137
:10036000C1E70B46024641464846BDE8F08B13B54F
:10037000084318BF4FF0FF300146AFF30080BDE8DF
:100380001C4070474FF0000200B513469446964655
:10039000203922BFA0E80C50A0E80C50B1F1200198
:1003A000BFF4F7AF090728BFA0E80C5048BF0CC046
:1003B0005DF804EB890028BF40F8042B08BF7047A4
:1003C00048BF20F8022B11F0804F18BF00F8012B16
:1003D000704700000000000030B44FF0013C50F8BE
:1003E000042B51F8043BCCFA52F4D51A20D1FCB9B5
:1003F00050F8042B51F8043BCCFA52F4D51A17D11B
:10040000B4B950F8042B51F8043BCCFA52F4D51A85
:100410000ED16CB950F8042B51F8043BCCFA52F4CD
:10042000D51A05D1002CDAD030BC4FF0000070474F
:1004300029BAB1FA81F111F01801D1F120008440FC
:10044000F2D1CA40CB4012F0FF0213F0FF0330BCE0
:10045000D01A7047704770477047000000487047D7
:100460001000002070477546FFF7F8FFAE46050004
:100470006946534620F00700854618B020B5FFF7BF
:10048000F7FEBDE820404FF000064FF000074FF0A8
:1004900000084FF0000BAC46ACE8C009ACE8C0095E
:1004A000ACE8C009ACE8C00921F007018D467047EF
:1004B00010B50446AFF300802046BDE81040FFF7BA
:1004C000C2BE000001491820ABBEFEE726000200B4
:1004D000FEE700007047000072B600BFFEE70000B4
:1004E00070B581B00022009290F83C20012A03D11F
:1004F000022001B070BD00BFD1F800E001221FFA58
:100500008EFC4FEA4C0380F83C200EEB4E0213FAAF
:100510008EF31024BEF1090F88BFA3F11E0288BF1D
:100520000C24036807251E59954026EA05051D5130
:100530008D681E5905FA02F232431A51496806299C
:1005400006D801EB81014A1F194651F8345F0EE0CD
:100550000C2901EB810105D8A1F12302194651F8BC
:10056000305F04E0A1F14102194651F82C5F1F24CD
:10057000944025EA04040C600CFA02F20C6842F282
:10058000043CC4F2010C2243ACF54174A3420A605E
:100590003ED1BEF1120F07D1DCF8001041F480010A
:1005A000CCF8001034E000BF2EF0010110292FD14B
:1005B000DCF80010BEF1100F41F40001CCF800107F
:1005C00026D140F20C01C2F2000109684DF68362A7
:1005D000C4F21B32A1FB0212910C01EB8101490014
:1005E00000910099A1B1009901390091009979B168
:1005F000009901390091009951B100990139009198
:10060000009929B100990139009100990029EAD196
:10061000002180F83C10002001B070BD002804BF0C
:100620000120704710B5016C00293DD0016CC9064E
:1006300045D4016C41F202129143023142F204327C
:100640000164C4F20102116821F4403111601368A1
:1006500090E812102343D0F810E013604A68012498
:1006600022F480724A604A68C0F6007442EA0E22A0
:100670004A604A6822F040724A604A6842EA0C02C4
:100680004A608A6822F400628A60C2688B681A43F2
:100690008A60826A8B68A24223F070638B608B68E9
:1006A00010D123F0405216E0044600F065F82046D1
:1006B0000021616484F83C10016CC906B9D50121A0
:1006C00053E000BF1A438A608A6822F040528A6071
:1006D000C26A8B681A438A608A6822F002028A60C2
:1006E0008A68037E90F8204042EA43028A604A68A2
:1006F00084B142F400624A604A684EF2000322F478
:1007000060424A60426ACFF6FF734C6803EB4232A4
:10071000224301E022F400624A60CA6A40F2000CFF
:1007200022F47002CA62C3694269CFF6F07CCC6AD7
:100730000CEB03532343CB628B6823F400738B6071
:1007400090F830308C6844EA43238B608B6823F444
:1007500080638B608B6843EA82228A600021416457
:10076000026C012363F301020264002280F83C2042
:10077000BDE8104008467047F0B587B0006842F207
:1007800000120024C4F20102C4F2020400219042CB
:10079000CDE90511CDE90311029149D042F20001E2
:1007A000C4F20101884266D1002643F6300001966A
:1007B000C4F20200416902AD41F4807141614169B6
:1007C000032701F48071019101990196016841F0BC
:1007D00004010160016801F0040101910199019691
:1007E000016841F001010160016801F0010101911E
:1007F00001990196016841F00201016000682946F3
:1008000000F00200019001980220029004F50060BF
:10081000CDE9037600F08CF93020CDE902072046BF
:100820002946049600F084F90120CDE902071BE077
:1008300043F630000191C4F20200426942F40072B2
:100840004261426902F400720192019A01910168C9
:1008500041F002010160006800F00200019001987F
:1008600002200290032003900020049004F5806091
:1008700002A900F05DF907B0F0BD0000002804BF38
:1008800001207047B0B5044690F8200010B920460A
:1008900000F06EF82068016841F00101016000F08D
:1008A00025FA054620684168C90705D100F01EFAFF
:1008B000401B0B28F6D310E0016821F00201016013
:1008C00000F014FA054600BF2068416889070DD57D
:1008D00000F00CFA401B0B28F6D3606A052140F4A7
:1008E00000306062012084F82010B0BD217E0268D3
:1008F000012922F0800208BF80320260617E026816
:10090000012922F0400208BF40320260A17E026845
:10091000012922F0200208BF20320260E17E026835
:10092000012922F0100218BF10320260217F0268F4
:10093000012922F0080208BF08320260617F0268C4
:10094000012922F0040208BF04320260D4E901C286
:10095000D4E9033561691A432A431143ACF101021A
:100960001143C16100200121606284F82010B0BDF4
:1009700080B586B0006846F60002C4F2000200218D
:100980009042CDE90411CDE90211019132D046F235
:100990000041C4F2000188426DD140F29401C2F2DC
:1009A00000010A6843F64000C4F20200531C0B60C9
:1009B00052B900210091016841F0007101600168A5
:1009C00001F00071009100990021009150F8101C75
:1009D00041F0080140F8101C50F8100C032100F001
:1009E00008000090009840F20040C4F2020000F5B8
:1009F000006034E043F64000C4F202000091016858
:100A000041F080610160016801F08061009100990E
:100A100040F29401C2F200010A68531C0B6052B903
:100A200000210091016841F000710160016801F04E
:100A30000071009100990021009150F8101C41F0C4
:100A4000020140F8101C50F8100C4FF4405100F017
:100A500002000090009840F20040C4F202000191B0
:100A600002210291002103910321049109210591A2
:100A700001A900F05DF806B080BD000070B5866D7C
:100A8000044600F033F994F83510022928D10546C0
:100A90002068216C026822F016020260426922F08E
:100AA0008002426109B9A16C19B1016821F0080105
:100AB0000160016821F00101016000BF2068006849
:100AC000C00715D000F012F9401B0628F6D32020ED
:100AD0006065032084F83500002184F8341070BD6F
:100AE000802060650120002184F8341070BD00BFB3
:100AF000E06D3F2101FA00F0B060012084F835007C
:100B00000020002184F8341070BD000090F83510EA
:100B1000022909D1052180F835100068016821F00B
:100B2000010101600020704780214165012070476C
:100B30002DE9F04F83B000F1200200F13E4741F66D
:100B40000045009207F1FF77C4F2020508224FEA40
:100B5000B726A84208BF072200254FF000084FF033
:100B60000009072E38BF4FEAB72201920AE000BF02
:100B700009F1010908F10208B9F1100F05F10405A6
:100B800000F0A2800F68012202FA09FE17EA0E0A9D
:100B9000EED0D1F804C003220CF003077E1E02FA47
:100BA00008F4012E6FEA040B12D88468CE6804EAB8
:100BB0000B0406FA08F634438460446824EA0E06FF
:100BC000CCF3001404FA09F42643466004E000BFA5
:100BD000032F01D103271EE0C6688C6806EA0B06C6
:100BE00004FA08F42643022FC66014D16FF0030202
:100BF000009E02EA590756F807C005F01C040F22B0
:100C00000B69A2402CEA0202A3401A43F251D1F828
:100C100004C00CF00307026807FA08F302EA0B02AB
:100C20001A431CF4403F0260A2D0002243F6440362
:100C30000292C4F202031A6843F6004442F480426E
:100C40001A601A68C4F2010402F480420292029A05
:100C500029F003024FF6084C2244CFF6FF7C52F8ED
:100C60000C3005F00C070F26BE40B343019E06FA78
:100C700007F73B4342F80C30A2684B6842EA0A0788
:100C800043F60C4CDE0258BF22EA0A07A760C4F202
:100C9000010CDCF800209E0242EA0A0758BF22EA53
:100CA0000A07CCF8007062689E0342EA0A0758BF40
:100CB00022EA0A0767602268DB0342EA0A0758BF94
:100CC00022EA0A07276053E703B0BDE8F08F00006F
:100CD000426902EA0103914341EA0341816170479D
:100CE000002A08BF090481617047000040F678308F
:100CF000C2F2000000687047002804BF012070475E
:100D0000F0B581B0044690F83D0028B9002084F881
:100D10003C00204600F050F9242084F83D00206873
:100D2000016821F001010160016841F400410160A6
:100D3000016821F40041016000F030FB636848F273
:100D4000A16CC0F2010C40F60011C0F23D016345F8
:100D50003CBF48F28041C0F21E01884202D201200D
:100D600001B0F0BD4DF68361C4F21B31A0FB01124E
:100D70002168970CD1F804E04FF496762EF03F05E9
:100D800045EA92454D60774348F638160D6AC0F241
:100D90004106A7FB067625F03F07634538BF960C52
:100DA000721C3A430A62CA6948F2A0664CF6FF77A1
:100DB000C0F20106B34222EA07020BD801385B00F9
:100DC000B0FBF3F001306FF31F30042898BF04200C
:100DD0001BE000BFA768013857B119277B43B0FB60
:100DE000F3F001306FF31F3070B100F5804007E081
:100DF00003EB4303B0FBF3F001306FF31F3018B186
:100E000000F5004001E000BF01201043C861086800
:100E1000D4E9072320F0C000104318430860886815
:100E200048F2FF3204F10C0790438CCF1843104373
:100E3000A6698860C86820F0FF0038433043C86066
:100E4000086840F00100086000202021206484F838
:100E50003D10206384F83E0001B0F0BD2DE9F04361
:100E600083B0994616460F460446FFF73FFF94F8B5
:100E70003D10202924D10546206800BF81698907DB
:100E80001AD5FFF733FF411B20681A29F6D3816971
:100E90008907F3D500202021206384F83D1084F8D1
:100EA0003E00216C41F02001216484F83C000220C6
:100EB00003B0BDE8F08300BF94F83C10012903D1D2
:100EC000022003B0BDE8F083012284F83C200368CF
:100ED000DDE90B180A9ADB0703D1036843F001032D
:100EE0000360036823F400630360212084F83D005D
:100EF000402084F83E000020206462626185608D9D
:100F0000394620850020CFF6FF70E0622046324649
:100F10004B46CDE9008502F0ADFB18B1012003B0CE
:100F2000BDE8F083208D98B9204641462A4602F05C
:100F300005FC88B3206C0428F0D12068016841F4D6
:100F400000710160012003B0BDE8F0830004EBD024
:100F5000204641462A4602F0A1FD0028EAD1616AF6
:100F60002268084610F8013B1361238D6062581E09
:100F70002085678D013F678557697F07E6D50704A0
:100F8000E4D048781061881C6062981E2085618DCD
:100F900001396185DAE700BF2068016841F400711A
:100FA0000160202084F83D00002084F83E0084F891
:100FB0003C0003B0BDE8F0832DE9F04786B000683F
:100FC00045F60041C4F2000100268842CDE90466DE
:100FD000CDE9026601962FD045F20041C4F200012E
:100FE00088426ED1002543F630040095C4F2020415
:100FF000206801A940F002002060206800F0020093
:1010000000900098C02001901220CDE90205032035
:101010000490042005900020C4F2020000F58060D6
:10102000FFF786FD0095206940F4001020612069DB
:1010300000F4001043E000BF43F630070096C4F20E
:1010400002073868002440F0040038603868C4F2B1
:10105000020400F00400009000980096386801AD8A
:1010600040F00100386038684FF0120800F00100CD
:10107000009000984FF4007001904FF003094FF07A
:10108000040A04F500602946CDE90286CDF81090E7
:10109000CDF814A0FFF74CFD4FF48070CDE90108A6
:1010A00003A880E8400620462946FFF741FD009648
:1010B000386940F400003861386900F4000000909D
:1010C000009806B0BDE8F08740F2000040F67831A5
:1010D000C2F20000C2F2000100780A681044086001
:1010E0007047000080B543F60040C4F2020001687A
:1010F00041F400710160016841F4806101600168A0
:1011000041F480710160032000F086F80F2000F0A8
:1011100005F800F027F8002080BD000070B540F20F
:101120000006C2F2000640F20C013278C2F2000161
:101130004FF47A730968B3FBF2F20446B1FBF2F1A3
:10114000084600F011FC0F2C4FF0010508D838B903
:101150004FF0FF3021460022002500F031F8746086
:10116000284670BD82B0002043F640010190C4F2D1
:1011700002014A6842F480424A604A6802F48042AE
:101180000192019A0090086840F080500860086859
:1011900000F080500090009802B07047002848BFCF
:1011A000704700F01F01012202FA01F11C2202EA3D
:1011B000D0004EF20012CEF20002815070470000C3
:1011C00010B54EF60C5CCEF2000CDCF80030C3F328
:1011D000022E8EF00704042C28BF0424BEF1030362
:1011E0004FF0FF3E0EFA04F438BF0023A1439940AC
:1011F0000EFA03F39A43114300F00F0200F160432B
:101200000901043A03F564436244002848BF02F12F
:101210000C03197010BD00004EF60C51CEF2000107
:101220000A684FF6FF031A4060F30A2242F080601A
:1012300040F0FD7008607047002804BF012070472F
:101240002DE9F04143F60808C4F202080446D8F834
:10125000F8030D4600F00700814207D988F8F853DB
:10126000D8F8F80300F00700A84277D1206881077A
:1012700017D5410705D5D8F8001041F4E051C8F85A
:101280000010010705D5D8F8001041F46041C8F8F6
:101290000010D8F80010A26821F0F0011143C8F83E
:1012A0000010C00740D1D8F8F80300F007008542CD
:1012B00007D288F8F853D8F8F80300F00700A842DE
:1012C0004CD12068410707D5D8F80010E26821F416
:1012D000E0511143C8F80010000708D5D8F8000005
:1012E000216920F4604040EAC100C8F8000000F025
:1012F0007DF8D8F8001045F63C72C1F30311C0F632
:101300000002515C40F20C0220FA01F140F20400AC
:10131000C2F200000068C2F200021160FFF7FEFE98
:101320000020BDE8F08100BF6068811E022907D25D
:1013300058F8081C89015CBF0120BDE8F08111E06C
:10134000012807D158F8081C89035CBF0120BDE8BB
:10135000F08107E058F8081C890703D40120BDE894
:10136000F08100BFD8F8001021F003010843C8F84D
:101370000000FFF7BBFC064641F28837D8F80000B2
:10138000616800F00C00B0EB810F8CD0FFF7AEFC71
:10139000801BB842F2D90320BDE8F08140F20C0076
:1013A00043F60801C2F20000C4F2020100680968B5
:1013B00045F64C72C1F38221C0F60002515CC84070
:1013C0007047000040F20C0043F60801C2F2000032
:1013D000C4F202010068096845F64C72C1F342315B
:1013E000C0F60002515CC8407047000010B543F6DB
:1013F0000404C4F202046168C1F3810142F20040B6
:10140000C0F2F400DFE801F002040A0210BD00BFE0
:1014100041F20020C0F27A0010BD00BF216801F047
:101420003F02216823684902C3F3881106D4A1FB57
:1014300000010023FEF72EFF07E000BF41F200206D
:10144000C0F27A004843B0FBF2F021680222C1F3F7
:10145000014102EB4101B0FBF1F010BD002804BFD7
:10146000012070472DE9F04182B00446007843F630
:101470000006C007C4F202060CD0B06800F00C00F1
:10148000042840F081803068800303D5606800281C
:1014900000F06881207880071BD5B06810F00C0F31
:1014A00009D0B06800F00C00082840F08780706810
:1014B000400200F183803068800703D5E06801288E
:1014C00040F050813068216920F0F80040EAC10006
:1014D00030602078000713D4207840072AD4A5690B
:1014E000002D00F03A81B06800F00C00082840F0B0
:1014F000A580012D40F00E81012002B0BDE8F081F1
:101500006069002800F082800020C4F24720012199
:10151000C0F8801EFFF7EAFB054600BF706F80072A
:10152000DAD4FFF7E3FB401B0228F7D9032002B00F
:10153000BDE8F081306C5FEAC0080AD40020019059
:10154000306C40F080503064306C00F0805001907E
:10155000019847F20007C4F200073868C00547D475
:10156000386840F480703860FFF7C0FB054600BF64
:101570003868C0053CD4FFF7B9FB401B0228F7D9F7
:10158000032002B0BDE8F081B06800F00C0008282C
:1015900003D1706840023FF576AF61683068B1F5FD
:1015A000803F07D0B1F5A02F40F09A8040F4802012
:1015B0003060306840F4803030609AE0E0680028A5
:1015C00040F20000C4F247205CD001210160FFF727
:1015D0008DFB0546306880073FF574AFFFF786FB4B
:1015E000401B0228F6D9032002B0BDE8F08100BFFD
:1015F000A168306F012905D0052955D140F00400BC
:101600003067306F40F00100306756E00020C4F2D0
:1016100047200021C0F8801EFFF768FB054600BF89
:10162000706F80077FF558AFFFF760FB401B022803
:10163000F6D9032002B0BDE8F08100BF0027C4F254
:10164000472700203866FFF751FB022D05460DD1D4
:101650003068800140F18A80FFF748FB401B022878
:101660004FF00300F4D902B0BDE8F081306880018A
:1016700073D5FFF73BFB401B02284FF00300F5D961
:10168000F1E700BF00210160FFF730FB054600BF16
:10169000306880077FF51DAFFFF728FB401B02284D
:1016A0004FF00300F4D9DEE720F001003067306F1F
:1016B000002920F0040030677AD0FFF717FB0546B9
:1016C00041F28837306F800700F18480FFF70EFB0E
:1016D000401BB842F6D9032002B0BDE8F08100BF3C
:1016E00020F4803030603068002920F480203060A1
:1016F0007AD0FFF7FBFA0546306880033FF5CAAEA3
:10170000FFF7F4FA401B6428F6D9032002B0BDE8C5
:10171000F08100BF7068E16900F480028A4221D143
:10172000216A00F03F028A421CD147F6C071626A0A
:101730000140B1EB821F15D1A16A4FF6FF73C903B7
:10174000994300F44032A1F580318A420AD1E16A1E
:1017500000F07060B0EB016F04D1002002B0BDE872
:10176000F08100BF012002B0BDE8F08104F11C054A
:101770002FCD084340EA8210D9034FF6FF72914300
:10178000A1F5803140EA05600843706001203866A9
:10179000FFF7ACFA044600BF30688001DDD4FFF7E4
:1017A000A5FA001B02284FF00300F5D95BE700BF44
:1017B000FFF79CFA054641F2883700BF306F80077B
:1017C00008D5FFF793FA401BB8424FF00300F5D954
:1017D00049E700BFB8F1000F3FF581AE306C20F053
:1017E000805030647BE600BFFFF780FA054600BFFB
:1017F000306880037FF54EAEFFF778FA401B64280F
:101800004FF00300F4D92EE770B528B1416A29B131
:1018100000210161142106E0012070BD4168B1F58D
:10182000827F02D01C21002242500026866290F85E
:10183000511029B980F85060054600F03DF828465F
:10184000022180F8511090E82E0002F482720C6898
:1018500003F4044324F040040C601A4405F40063CC
:1018600005691A4405F0020345691A4405F00103AD
:101870008569C4691A4405F400731A4404F03803F6
:10188000046A1A4404F08003846A1A4304F400537F
:101890001A430A60436A042202EA154203F0100365
:1018A0001A444A60CA6922F40062CA61012146658D
:1018B00080F85110304670BD2DE9F04387B043F6F3
:1018C00000050068C4F200050026A8420696CDE98E
:1018D00004660396029603D007B0BDE8F08300BF0C
:1018E00043F630000196C4F20200016902AC41F4F3
:1018F0008041016101694FF0020801F480410191CA
:101900000199019601684FF0030941F0040101605B
:101910000168052701F00401019101990196016810
:1019200041F0020101600068214600F002000190D0
:1019300001980C20029005F5E830CDE90386CDF83A
:1019400014900697FFF7F4F84FF48060CDE9020891
:1019500005F5E6302146CDE904690697FFF7E8F87A
:1019600007B0BDE8F0830000411E0020B0EB116F0E
:101970001CBF012070474EF21002CEF200025160EF
:101980004EF62351CEF20001F0230B700721906038
:1019900011607047704700007047000090F83C20CD
:1019A000012A04BF02207047B0B501F108053CCD03
:1019B000D1E900CE23F47C5322F470521A432EF462
:1019C000F0431A432CF4E0431A4324F4C0431A436F
:1019D0002A43C96922F480420368114359640021F3
:1019E00080F83C100020B0BD90F83C20012A4FF058
:1019F000020254D010B580F83D200268D2F804E00D
:101A0000D2F808C00C682EF07003234341F2FF7433
:101A1000C4F20004A24253600EDC40F2FF73C4F231
:101A200000039A4216DCB2F1804F2BD040F2004303
:101A3000C4F2000324E000BF40F2FF33C4F201030C
:101A40009A4213DC41F60003C4F200039A4219D013
:101A5000002313E040F60003C4F200039A4211D0C1
:101A600040F60043C4F200030AE000BF44F2000362
:101A7000C4F201039A4205D040F20043C4F20103CC
:101A80009A4204D149682CF08003194391600121E6
:101A9000002280F83D1080F83C20BDE81040104640
:101AA00070470000002804BF0120704710B50446AD
:101AB00090F83D0028B9002084F83C00204600F052
:101AC0001FF8022084F83D002068211D03F082FDEC
:101AD000012084F8460084F83E0084F83F0084F832
:101AE000400084F8410084F8420084F8430084F800
:101AF000440084F8450084F83D00002010BD00003B
:101B000080B582B0006840F2FF31C4F20101884222
:101B100020DD40F20041C4F20101884238D044F295
:101B20000041C4F20101884240D044F60001C4F2F1
:101B30000101884249D10020019043F64400C4F2DB
:101B40000200016841F480210160006800F48020F7
:101B500039E000BF41F20001C4F20001884237D0F1
:101B600041F60001C4F2000188422ED1002001900C
:101B700043F64400C4F2020050F8041C41F0400156
:101B800040F8041C50F8040C00F040001BE000BFBB
:101B90000020019043F64400C4F20200016841F0C5
:101BA00002010160006800F002000CE000200190DA
:101BB00043F64400C4F20200016841F400310160C0
:101BC000006800F400300190019802B080BD00BFB1
:101BD0000020019043F64400C4F2020050F8041CB7
:101BE000002241F0100140F8041C50F8040C0021C0
:101BF00000F01000019001983620FFF7E1FA36203E
:101C000002B0BDE88040FFF7C9BA000090F83C2060
:101C1000012A4FF002026CD080B580F83D20D0F848
:101C200000C04FF67772DCF8083023EA0202CCF8E5
:101C300008200B684F2B29DC1F2B45DD202B46D0BD
:101C4000302B44D0402B40F0AF80D1F804E0C9687D
:101C5000DCF82030DCF8202022F00102CCF8202033
:101C6000DCF8182022F0F00242EA011123F00A0207
:101C700042EA0E02CCF81810CCF82020DCF808104C
:101C800041F0470121F0300128E000BF6F2B33DD28
:101C9000B3F5005F74D0B3F5805F21D0702B40F0B6
:101CA0008380D1E901E3C968DCF8082043EA0E0328
:101CB00022F47F4243EA01211143CCF80810DCF8FA
:101CC000081041F0770109E00BB1102B6CD1DCF862
:101CD000081021F07001194341F00701CCF80810F9
:101CE0000022012180F83D10002180F83C10BDE861
:101CF00080401046704700BF502B21D0602B53D13D
:101D0000D1F804E0C968DCF82030DCF8202022F0AB
:101D10001002CCF82020DCF8182022F4704242EAAD
:101D2000013123F0A00242EA0E12CCF81810CCF8D0
:101D30002020DCF8081041F0670121F01001CDE708
:101D4000D1F804E0C968DCF82030DCF8202022F06B
:101D50000102CCF82020DCF8182022F0F00242EA40
:101D6000011123F00A0242EA0E02CCF81810CCF856
:101D70002020DCF8081041F0570121F02001ADE7E8
:101D8000D1E901E3C968DCF8082043EA0E0322F434
:101D90007F4243EA01211143CCF80810DCF8081017
:101DA00041F480419AE700BF01229AE7002804BF6E
:101DB000012070472DE9F047044690F83D000D469C
:101DC00028B9002084F83C00204600F049F80220A1
:101DD00084F83D00206844F20702816891438160E5
:101DE000211D03F0F7FB20684FF6FF7881688269B8
:101DF000D0F820C0D5E9003ED5E9026A43EA0109DE
:101E0000AB6922EA080246EA03234FF6FC46B343D5
:101E1000D5E9076742EA0A0229691A4342EA06221B
:101E200042EA01112CF0AA026B6942EA0E0241EA71
:101E3000073142EA0312C0F8089081610262012072
:101E400084F8460084F83E0084F83F0084F842009D
:101E500084F8430084F83D000020BDE8F0870000CE
:101E600080B586B0006840F2FF71C4F2000188427C
:101E70004FF000010591CDE90311CDE9011121DCFD
:101E8000B0F1804F4CD040F20041C4F200018842D2
:101E900040F09180002043F630010090C4F202012E
:101EA0000A6942F002020A610A6902F00202009223
:101EB000009A00900868C02240F00100086008689D
:101EC000022144E040F60001C4F20001884247D0FC
:101ED0000021C4F2010188426DD1002043F6300197
:101EE0000090C4F202014A6942F001024A614A6963
:101EF00002F001020092009A009008684FF42062FC
:101F000040F0100008600868012100F01000009007
:101F100000980020C4F2020000F5805041E000BFAC
:101F2000002043F630010090C4F202010A6942F039
:101F300001020A610A6902F001020092009A00900F
:101F40000868032240F0010008600868012100F0E1
:101F50000100009000980020C4F2020021E000BFC0
:101F6000002043F630010090C4F202010A6942F0F9
:101F700004020A610A6902F004020092009A0090C9
:101F800008684FF4405240F00800086008680221D9
:101F900000F00800009000980020C4F2020000F554
:101FA00040600192022202920022059101A9CDE92E
:101FB0000322FEF7BDFD06B080BD000070470000A3
:101FC00090F83C30012B04BF022070474FEAB20268
:101FD000032A00F28D80F0B5DFE802F002642646A5
:101FE0000368D1E900C5D1F80CE01C6A1A6A41F215
:101FF000FF7722F001021A621A4652F8186FC4F2F3
:102000000007BB427ADC40F2FF77C4F20007BB4214
:1020100000F38280B3F1804F00F0968040F20047D9
:10202000C4F200078EE000BF0768D1E900C5D1E91E
:1020300002313C6A3A6A61F3071522F480723A620F
:102040003A4652F81C6F26F0F30645EA060124F4DE
:1020500020660CF00A0546EA052611603E6211680A
:1020600021F00C01116080E00368D1E900E6D1E9BC
:1020700002C11C6A1A6A360222F480521A621A4697
:1020800052F81C5F4FF2FF07BE4325F4734561F31E
:102090000F3624F420440EF00A0746EA050144EA0C
:1020A00007371CE00368D1E900E6D1E902C11C6AE8
:1020B0001A6A360222F010021A621A4652F8185FA3
:1020C0004FF2FF07BE4325F4734561F30F3624F04A
:1020D000A0040EF00A0746EA050144EA071711605A
:1020E0001F6211684FEA0C2321F4406111603CE04B
:1020F0000121002280F83C200846704740F2FF375B
:10210000C4F20107BB4213DC41F60007C4F200072A
:10211000BB4219D0002713E040F60007C4F20007C5
:10212000BB4211D040F60047C4F200070AE000BFEE
:1021300044F20007C4F20107BB4205D040F2004759
:10214000C4F20107BB421BD126F00306354324F03D
:102150000A070CF00A066EF3071537449D611F62EB
:102160009F6927F00C079F618B6811681943116004
:102170000021BDE8F040002280F83C20084670476E
:1021800046F00105E3E70000002804BF0120704786
:1021900010B5044690F83D0028B9002084F83C00B2
:1021A000204600F01FF8022084F83D002068211D21
:1021B00003F010FA012084F8460084F83E0084F809
:1021C0003F0084F8400084F8410084F8420084F81D
:1021D000430084F8440084F8450084F83D00002062
:1021E00010BD000080B586B044F200010068C4F262
:1021F0000101002288420592CDE903220292019258
:1022000002D006B080BD00BF43F630000092C4F299
:102210000200436943F480334361436903F480332C
:102220000093009B0092036843F010030360006872
:1022300000F0100000900098202001900220CDE9CD
:1022400002020320059001F5504001A90492FEF717
:102250006FFC06B080BD000070B504460068C5681C
:102260000669B10716D515F0020113D06FF002010F
:102270000161012121778069800703D02046FFF7A3
:102280009DFE05E0204600F0E7F9204600F056FBF1
:1022900000202077700719D515F0040016D02068AB
:1022A0006FF00401016102212177806910F4407F01
:1022B00004D02046FFF782FE06E000BF204600F073
:1022C000CBF9204600F03AFB00202077300717D5E5
:1022D00015F0080014D020686FF008010161042196
:1022E0002177C069800703D02046FFF767FE05E02D
:1022F000204600F0B1F9204600F020FB00202077B6
:10230000F00619D515F0100016D020686FF01001F6
:10231000016108212177C06910F4407F04D0204674
:10232000FFF74CFE06E000BF204600F095F920467E
:1023300000F004FB00202077F00718BF15F0010023
:1023400002D1300609D412E020686FF0010101616A
:10235000204600F0F5FA300609D515F0800006D0C9
:1023600020686FF0800101612046FFF713FB7006C3
:1023700009D515F0400006D020686FF040010161DA
:10238000204600F0DFFAB00658BF70BD15F02000FF
:1023900008D021686FF0200220460A61BDE8704035
:1023A000FFF7FABA70BD000080B586B0006844F24D
:1023B000FF31C4F2010188424FF000010591CDE9DF
:1023C0000311CDE9011125DC41F60001C4F2000141
:1023D000884235D040F20041C4F2010188425FD109
:1023E0000020009043F63000C4F2020001684FF470
:1023F000807241F0040101600068032100F00400D4
:102400000090009840F20040C4F2020000F58060A5
:102410003CE000BF44F20041C4F2010188421FD0F9
:1024200044F60001C4F20101884239D10020009035
:1024300043F63000C4F2020001684FF4007218E065
:102440000020009043F63000C4F2020001684FF40F
:10245000404241F002010160006809210EE000BF26
:102460000020009043F63000C4F2020001684FF4EF
:10247000807241F0020101600068032100F0020057
:102480000090009840F20040C4F202000192022243
:1024900002920022059101A9CDE90322FEF748FB33
:1024A00006B080BD90F83C30012B04BF022070477D
:1024B0004FEAB202032A00F2C980F0B5DFE802F069
:1024C000028A3264026840F20045136A166A23F0F9
:1024D000020326F001061662D2F804E0D2F818C012
:1024E0008E6842F48064C4F20105AC4243EA0603FC
:1024F00005D1CE6823F00C0326F0040633430E68A2
:10250000AC4206D1D1E905472EF44075254345EA92
:10251000070E2CF073073743C2F804E0976149684F
:10252000516389E0026840F20045136A176A23F498
:10253000007327F480771762D2F804E0D2F81CC049
:102540008E6842F48064C4F20105AC4243EA06237B
:1025500007D1CE6840F2FF47360223F44063BE4302
:1025600033430E68AC4206D1D1E905452EF44057FD
:10257000254347EA051E2CF073073743C2F804E0F1
:10258000D7614968D16357E0026840F20047D2F84A
:1025900020E0136A42F4806623F480531362536888
:1025A000D4690D68D1F808C0C4F20107BE4204D155
:1025B0004E6923F4804343EA861324F4E64646EA50
:1025C00005265360D66149682EF4005747EA0C335C
:1025D000116431E0026840F20045136A176A23F083
:1025E000200327F010071762D2F804E0D2F818C0D1
:1025F0008E6842F48064C4F20105AC4243EA0613DB
:1026000007D1CE686FF0400723F0C00307EA061633
:1026100033430E68AC4206D1D1E905452EF440673C
:10262000254347EA850E2CF4E64747EA0627C2F819
:1026300004E097614968916300211362BDE8F040AE
:10264000002280F83C200846704700BF012100228C
:1026500080F83C200846704770470000002804BFFF
:102660000120704710B5044690F83D0028B90020BD
:1026700084F83C00204600F01FF8022084F83D005A
:102680002068211D02F0A6FF012084F8460084F88E
:102690003E0084F83F0084F8400084F8410084F84C
:1026A000420084F8430084F8440084F8450084F82C
:1026B0003D00002010BD00007047000090F83C3045
:1026C000012B04BF022070474FEAB202032A00F236
:1026D000FF802DE9F043DFE802F003B13F7F00BF48
:1026E000036840F200461C6A1A6A24F0020422F0D1
:1026F00001021A621A46D3F804C052F818EF8F6824
:1027000043F48065C4F20106B54244EA070405D1EA
:10271000CF6824F00C0427F004073C430F68B5424F
:1027200006D1D1E905582CF440762E4346EA080C30
:102730002EF073063743C3F804C09F614F680969E0
:102740005F631C629F6947F008079F619F6927F0DC
:1027500004079F61B1E000BF036840F200481C6AB3
:102760001A6A24F4007422F480721A621A46D3F8AA
:1027700004C052F81CEF8F6843F48065C4F201086E
:10278000454544EA072408D1CF6840F2FF463F029E
:1027900024F4406427EA06063443D1F80090454506
:1027A00006D1D1E905562CF440572E4347EA061CC2
:1027B0002EF0730747EA0907C3F804C0DF614F68CA
:1027C0000969DF631C62DF6947F00807DF61DF69C1
:1027D00027F00407DF6170E0036840F20045D3F89A
:1027E00020C01A6A43F4806722F480521A621A46A3
:1027F0005C6852F81C8FD1F800E08E68C4F20105C5
:10280000AF4204D14D6924F4804444EA85142CF489
:10281000005747EA063728F4E64646EA0E265C608B
:10282000DE614E6809691E641F62DF6947F4006754
:10283000DF61DF6927F48067DF613DE0036840F214
:1028400000481C6A1A6A24F0200422F010021A625E
:102850001A46D3F804C052F818EF8F6843F4806525
:10286000C4F20108454544EA071407D1CF686FF068
:10287000400624F0C00406EA07163443D1F800905D
:10288000454506D1D1E905562CF440672E4347EA69
:10289000860C2EF4E64747EA0927C3F804C09F6177
:1028A0004F6809699F631C629F6947F400679F61D5
:1028B0009F6927F480679F610902136819431160BB
:1028C0000021BDE8F043002280F83C200846704714
:1028D0000121002280F83C2008467047002804BFF0
:1028E0000120704710B5044690F83D0028B900203B
:1028F00084F83C00204600F01FF8022084F83D00D8
:102900002068211D02F066FE012084F8460084F84C
:102910003E0084F83F0084F8400084F8410084F8C9
:10292000420084F8430084F8440084F8450084F8A9
:102930003D00002010BD00007047000070470000FF
:1029400070470000704700007047000070470000AB
:10295000B0B582B001680A68CC684B6902F02F05F7
:10296000202D04F0200505D125B102B0BDE8B0400E
:1029700002F0DABE5FEA027C1EBF03F0010E04F42F
:10298000907313EB0E0341D1036BD50618D5012BC1
:1029900016D114F0100313D0002201920A6801929C
:1029A0004A680192019A496949064BD4818DC28DCA
:1029B000C38D002B18BF914240F0068202B0B0BD1B
:1029C00013062DD514F080032AD090F84120212A37
:1029D000F4D18268B2F5805F03D10269002A00F069
:1029E0007982026A531C036212784A60C28C013AEF
:1029F0001304C284E2D1C86820F08000C860C868AF
:102A000040F04000C86002B0B0BD00BFD30718BF9F
:102A100014F4807340F0E280530700F1E580EAE0AF
:102A20005206CBD514F04002C8D0CA6822F040024A
:102A3000CA60202180F8411002B0BDE8B04000F02B
:102A400011BE00BFC26B11684B68858D99B2002919
:102A500000F0B480A94280F0B180C385D169B1F59E
:102A6000807F00F0A080016851E8031F026821F414
:102A7000807142E80313DBB1016851E8031F02686B
:102A800021F4807142E8031393B1016851E8031FF8
:102A9000026821F4807142E803134BB1016851E8E8
:102AA000031F026821F4807142E80313002BDAD17E
:102AB000016851E8051F026821F0010142E8051391
:102AC000BBB3016851E8051F026821F0010142E82B
:102AD000051373B3016851E8051F026821F0010175
:102AE00042E805132BB3016851E8051F026821F085
:102AF000010142E80513002BDAD11AE0016851E820
:102B0000051F026821F0400142E80513DBB10168AE
:102B100051E8051F026821F0400142E8051393B116
:102B2000016851E8051F026821F0400142E80513E1
:102B30004BB1016851E8051F026821F0400142E8ED
:102B40000513002BDAD1202180F842100021016307
:102B5000016851E8031F026821F0100142E80313E5
:102B6000DBB1016851E8031F026821F0100142E85F
:102B7000031393B1016851E8031F026821F01001AB
:102B800042E803134BB1016851E8031F026821F0CA
:102B9000100142E80313002BDAD1C16B044608464A
:102BA000FDF76CFF204602214163818DC28D891A99
:102BB00089B202B0BDE8B040FFF7C6BE8D427FF4D7
:102BC000FDAED269B2F5807F7FF4F8AE0222426397
:102BD00002B0BDE8B040FFF7B7BE00BF436C43F0A2
:102BE00001034364530706D5BEF1000F03D0436CC5
:102BF00043F002034364930706D5BEF1000F03D0F0
:102C0000436C43F004034364BCF1000F06D55EEA55
:102C1000050303D0436C43F008034364436C002B6B
:102C20003FF4CCAE920605D525B1044602F07CFDFA
:102C3000216820464969426C01F0400102F0080217
:102C4000891800F0B98000BF016851E8031F0268CD
:102C500021F4907142E80313BBB3016851E8031FEC
:102C6000026821F4907142E8031373B3016851E8DC
:102C7000031F026821F4907142E803132BB301682B
:102C800051E8031F026821F4907142E80313002BFE
:102C9000DAD11AE0016851E8051F026821F001014C
:102CA00042E80513DBB1016851E8051F026821F015
:102CB000010142E8051393B1016851E8051F02685C
:102CC00021F0010142E805134BB1016851E8051FED
:102CD000026821F0010142E80513002BDAD1016BF3
:102CE000012924D1016851E8031F026821F0100175
:102CF00042E80313DBB1016851E8031F026821F0C9
:102D0000100142E8031393B1016851E8031F026800
:102D100021F0100142E803134BB1016851E8031F91
:102D2000026821F0100142E80313002BDAD12021C0
:102D300080F842100021016301684969490640F1A9
:102D4000C380016851E8051F026821F0400142E894
:102D50000513DBB1016851E8051F026821F040014D
:102D600042E8051393B1016851E8051F026821F09C
:102D7000400142E805134BB1016851E8051F0268A4
:102D800021F0400142E80513002BDAD1C16B002984
:102D900000F09A8045F21D72C0F600020446084613
:102DA0000A65FDF7B3FE00283FF408AEE06B016D45
:102DB00002B0BDE8B04008470446FFF7C7FD002059
:102DC000606402B0B0BD00BF891A00BF026852E85B
:102DD000032F036822F4907243E80325BDB3026811
:102DE00052E8032F036822F4907243E8032575B379
:102DF000026852E8032F036822F4907243E8032527
:102E00002DB3026852E8032F036822F4907243E85E
:102E10000325002DDAD11AE0026852E8052F036875
:102E200022F0010243E80525DDB1026852E8052FD2
:102E3000036822F0010243E8052595B1026852E8D3
:102E4000052F036822F0010243E805254DB1026811
:102E500052E8052F036822F0010243E80525002D02
:102E6000DAD1202280F8422000220263026852E870
:102E7000032F036822F0100243E80325DDB1026846
:102E800052E8032F036822F0100243E8032595B1AE
:102E9000026852E8032F036822F0100243E803257A
:102EA0004DB1026852E8032F036822F0100243E894
:102EB0000325002DDAD1022289B2426302B0BDE8B7
:102EC000B040FFF741BD00BF02B0BDE8B040FFF722
:102ED0003DBD00BF026A32F8023B6FF35F234B60D7
:102EE000026283E5002804BF0120704710B5044644
:102EF00090F8410028B9002084F84000204600F0F6
:102F000021F8242084F841002068C16821F4005190
:102F1000C160204602F088FC2068016921F49041DC
:102F20000161416921F02A014161C16841F4005108
:102F3000C16000202021606484F8411084F84210B0
:102F4000606310BD2DE9F04387B0006844F6FF715F
:102F5000C4F2000188424FF000010691CDE904114E
:102F6000CDE9021130DC44F20041C4F20001884294
:102F700066D044F60001C4F20001884200F0DA8015
:102F800044F60041C4F20001884240F0298100204B
:102F900043F630010190C4F202010A6942F40022B2
:102FA0000A610A6902F400220192019A01900A68FA
:102FB00042F004020A60096801F0040101910199DC
:102FC0004FF440612EE000BF45F20001C4F2000161
:102FD00088426BD041F20001C4F20101884200F046
:102FE000D38041F20041C4F20101884240F0F880F0
:102FF000002043F630010190C4F202014A6942F018
:1030000020024A614A6902F020020192019A01906D
:103010000A6842F004020A60096801F004010191A3
:103020000199C021049003200590082002910221FB
:10303000069040F600000391C4F20200CDE000BF0C
:10304000002043F630010190C4F202010A6942F403
:1030500000320A610A6902F400320192019A019079
:103060000A6842F001020A60096801F00101019159
:1030700001990C2102910221CDE903100320059052
:103080000720069040F60000C4F20200A0F50060A0
:1030900002A9FDF74DFD262000210022FEF790F841
:1030A0002620FEF77BF807B0BDE8F083002643F644
:1030B00030000196C4F20200016940F6000441F4B8
:1030C000801101610169C4F2020401F480110191CF
:1030D00001990196016802AD41F0040101600168A7
:1030E0004FF0020801F00401019101990196016875
:1030F0004FF0030941F0080101600068082700F063
:103100000800019001984FF4805002902046294613
:10311000CDE90386CDF814900697FDF709FD04204C
:10312000CDE90208CDE90469069704F580602946D7
:1031300054E000BF002043F630010190C4F20201C8
:103140000A6942F480220A610A6902F4802201922B
:10315000019A01900A6842F008020A60096801F0C9
:103160000801019101994FF4407102910221CDE9CA
:103170000310032005900720069040F60000C4F2DB
:10318000020000F5806028E0002043F63001019045
:10319000C4F202014A6942F010024A614A6902F02F
:1031A00010020192019A01900A6842F001020A603D
:1031B000096801F00101019101994FF4C061029188
:1031C0000221CDE90310032005900720069040F668
:1031D0000000C4F20200A0F5006002A9FDF7A8FCFF
:1031E00007B0BDE8F083000090F84230202B07D1F3
:1031F00000294FF0010318BF002A05D11846704777
:1032000002231846704700BF002303638162222116
:103210008285C285436480F842100169006819B153
:10322000C16841F48071C160416941F001014161AF
:10323000C16841F02001C1601846704740F6202166
:10324000C2F20001884218BF70472DE9F04140F2F8
:103250007004C2F200042578FDF748FD62782AB1B7
:103260006168411A332911D300216170C62D606055
:1032700006DCA52D24D0B62D29D1042023E000BFE3
:10328000C72D1FD0D82D22D106201CE06060501C15
:10329000A178C3B26070A0188B42057217D3224682
:1032A00012F8080F0A4412F8012CC6281CDCA528C5
:1032B00000F09280B6286FD16B239A421BD16EE04A
:1032C000052000E003202572A0700122627040F604
:1032D000202040F27001C2F20000C2F2000101227F
:1032E000BDE8F041FFF780BFC72879D0D82853D177
:1032F0008D239A4253D00229C0F0E780C1F1000C1F
:1033000000238E46E218557AC62D05DCA52D79D00E
:10331000B62D05D176E000BFC72D73D0D82D71D062
:103320000CEB0305AE1C00F0D080967AC62E05DCAF
:10333000A52E6BD0B62E05D168E000BFC72E65D094
:10334000D82E63D0EE1C00F0C080D67AC62E05DCE5
:10335000A52E5FD0B62E05D15CE000BFC72E59D098
:10336000D82E57D0043500F0B080127BAEF1040E99
:10337000C62A05DCA52A51D0B62A05D14EE000BFE9
:10338000C72A4BD0D82A49D004330CEB03020132B0
:103390004FF00002B6D199E700239A42ABD1C6287C
:1033A0004FF000020CDCA52820D0B6287FF48EAFA9
:1033B000B4F80900A4F811000120607686E700BF88
:1033C000C7281BD0D8287FF481AFD4F809006061EA
:1033D0000120E0767AE700BF5A239A42DFD08AE7DD
:1033E0007C239A427FF487AFD9E700BF607A618976
:1033F000A0730120A4F80F10207667E70120A076C3
:1034000064E700BFAEF1010E013308E0AEF1020E39
:10341000023304E0AEF1030E033300E00433DAB20A
:103420009142A1EB030833D05FFA8EF2012A1046D5
:1034300098BF0120042A00F0030C01D2002210E002
:1034400000F0FC05E01800228618317AA7183972BE
:10345000717A04327972B17A9542B972F17AF9725D
:10346000F2D1BCF1000F12D0D61804F10800865D2D
:10347000BCF1010F86540AD0561CF518455DBCF10D
:10348000020F855503D002321344C35C8354207A63
:10349000C62884F8018005DCA5280DD0B62807D100
:1034A00004200CE0C72809D0D82801D1062006E066
:1034B0000022A2700AE700BF052000E003205FFAA7
:1034C00088F18142A070FFF402AF0022FEE6000006
:1034D0002DE9F04381B0044690F84100202809D13D
:1034E00000294FF0010018BF002A07D101B0BDE844
:1034F000F08300BF022001B0BDE8F08300206064CB
:1035000021201D460E4684F841001746FDF7EEFBCC
:10351000A784E784A1688146B1F5805F02D1206964
:1035200000285DD037460020E28C2168002A5DD05B
:103530006A1C24D0002D4AD0804600BF08680006CF
:1035400008D4FDF7D3FBA0EB0900A8427AD8216884
:10355000C868F3E717B117F8010B04E038F8020B5D
:1035600000276FF35F204860E08C0138E084E08C36
:103570000028E3D13AE000BF0A68120609D40A68BD
:10358000120606D40A6812065CBF0A685FEA026285
:10359000F2D51FB117F8012B05E000BF30F8022B60
:1035A00000276FF35F224A60E28C013AE284E28CEA
:1035B000002AE4D11AE000BF30F8022B00276FF395
:1035C0005F224A60E28C013AE284E28C72B10A68BE
:1035D000120635D5002FEFD017F8012BF1E700BF09
:1035E00000273046E28C2168002AA1D108684006F5
:1035F0001ED42DB3681C14D1086840062AD408686C
:10360000400627D40868400624D4086840064FF0D6
:103610000000F1D50DE000BF2068C16800684006D9
:1036200018D4FDF763FBA0EB0900A842F4D909E028
:103630000020202184F8411001B0BDE8F08300BFD4
:10364000FDF754FB0320202184F8411001B0BDE8B0
:10365000F08300BF0020202184F8411001B0BDE8B4
:10366000F083000070470000FEE70000130A0B70B3
:10367000027070472DE9F04383B0044600680F469E
:1036800001680A9D0B9E41F4807199469046016045
:1036900020464FF0011100222B46009600F0ACF8B6
:1036A00050B120680068C00544BF4FF4007020642A
:1036B000032003B0BDE8F083206807F0FE0101613C
:1036C0000221C0F2010120462A46334600F07AF971
:1036D00020B1012003B0BDE8F08300BF00200290BC
:1036E0002068324641690291806929460290029819
:1036F000204600F0D3F958B1206C0428E9D12068A5
:10370000016841F400710160012003B0BDE8F0835D
:103710002068B9F1010F0AD04FEA18210161204653
:103720002946324600F0BAF90028E5D120685FFA50
:1037300088F10161002003B0BDE8F08370B5036833
:10374000044653F8140F400711D40E46481C29D0E4
:1037500086BB00BF1868400527D4FDF7C7FA236869
:1037600053F8140F400737D518684007F2D50020EA
:1037700070BD00BF18684007F9D41868400514D41C
:1037800018684007F3D4186840050ED4186840073D
:10379000EDD41868400508D4186840074FF00000C1
:1037A00048BF70BD18684005E4D56FF480601860AC
:1037B000042012E0154603E053F8140F4007D6D456
:1037C00018684005F1D4FDF791FA401B2368B04218
:1037D000F2D958694007EFD420200021202221632C
:1037E00084F83D2084F83E10226C104320640120B0
:1037F00084F83C1070BD00002DE9F04105460068DA
:103800001E46144601F47F0201338FB242D0DDF828
:103810001880B2F5803F40F0878040693840C01B77
:10382000B0FA80F04009844240F0C8804EB924E0EC
:1038300040693840C01BB0FA80F04009844240F033
:10384000BD80FDF753FAA0EB08012868B142EFD91B
:1038500041693940C91BB1FA81F149098C42E7D16C
:103860009BE000BF40693840C01BB0FA80F04009BF
:1038700084424FF0000040F0A280FDF737FA28683C
:1038800041693940C91BB1FA81F149098C42E9D13A
:1038900083E000BFB2F5803F24D100BF41693940C9
:1038A000C91BB1FA81F149098C4240F08780416916
:1038B0003940C91BB1FA81F149098C4240F07E8040
:1038C00041693940C91BB1FA81F149098C4275D16E
:1038D00041693940C91BB1FA81F149098C42DDD0F7
:1038E0006CE000BF81693940C91BB1FA81F1490917
:1038F0008C4263D181693940C91BB1FA81F1490910
:103900008C425BD181693940C91BB1FA81F1490907
:103910008C4253D181693940C91BB1FA81F14909FF
:103920008C42DFD04AE000BF80693840C01BB0FA4B
:1039300080F04009844241D146B923E08069384093
:10394000C01BB0FA80F04009844237D1FDF7CEF9B0
:10395000A0EB08012868B142F0D981693940C91B40
:10396000B1FA81F149098C42E8D116E0806938400A
:10397000C01BB0FA80F0400984424FF0000018BF2D
:10398000BDE8F081FDF7B2F9286881693940C91BAB
:10399000B1FA81F149098C42E8D100202021286345
:1039A00085F83D1085F83E00296C41F0200129641E
:1039B00085F83C000120BDE8F08100BF0020BDE893
:1039C000F0810000F0B581B0044600681D464369EF
:1039D0008FB203EA0701B94202D1002001B0F0BD65
:1039E0004169164601323CD0490512D47EB300BF6E
:1039F000FDF77CF9411B2068B14203D94169394088
:103A0000B9422BD141693940B942E6D041694905F3
:103A1000EED5016841F4007101606FF4806141618D
:103A2000042000212022216384F83D2084F83E10E8
:103A3000226C1043206484F83C10012001B0F0BDDA
:103A400041693940B942C8D041694905E1D4FDF71F
:103A50004DF9206841693940B942F1D02020E0E7B2
:103A600041694905D5D441693940B942B5D0416968
:103A70004905CED441693940B942AED041694905C2
:103A8000C7D441693940B942A7D041694905C0D47A
:103A900041693940B942E3D19FE7000070B503683E
:103AA000044653F8140F000611D40E46481C29D0C2
:103AB00086BB00BF1868400527D4FDF717F92368B7
:103AC00053F8140F000637D518680006F2D5002009
:103AD00070BD00BF18680006F9D41868400514D4FA
:103AE00018680006F3D4186840050ED4186800065C
:103AF000EDD41868400508D4186800064FF000009F
:103B000048BF70BD18684005E4D56FF48060186048
:103B1000042012E0154603E053F8140F0006D6D433
:103B200018684005F1D4FDF7E1F8401B2368B04266
:103B3000F2D958690006EFD4202000212022216309
:103B400084F83D2084F83E10226C1043206401204C
:103B500084F83C1070BD00000138032888BF70470E
:103B6000DFE800F0021E0A1440F20040C4F2020036
:103B70000421FDF7ADB800BF40F20040C4F20200DE
:103B800000F540600221FDF7A3B800BF40F20040FD
:103B9000C4F2020000F500604021FDF799B800BFB3
:103BA00040F20040C4F2020000F580600121FDF700
:103BB0008FB80000B0B584B040F2984042F20001E6
:103BC00001230024C2F20000C4F20101C0F6007318
:103BD000012503944FF48032047680F82040C0E938
:103BE0000A34C56180F8304080E81600C0E903441B
:103BF0004561FCF713FD002818BFFCF76DFC04209D
:103C0000CDE9000540F29840C2F2000069460294F6
:103C1000FCF766FC002818BFFCF75EFC04B0B0BDE2
:103C2000B0B584B040F2E04042F20011012300241C
:103C3000C2F20000C4F20101C0F600730125039432
:103C40004FF48032047680F82040C0E90A34C56120
:103C500080F8304080E81600C0E903444561FCF775
:103C6000DDFC002818BFFCF737FC0920CDE9000572
:103C700040F2E040C2F2000069460294FCF730FCDA
:103C8000002818BFFCF728FC04B0B0BD80B540F296
:103C9000285046F20041C2F20000C4F200010023A5
:103CA000102280E80E00C0E90333C0E905338383A6
:103CB000FCF7E4FD002808BF80BDBDE88040FCF7AC
:103CC0000BBC000080B540F2505046F60001C2F235
:103CD0000000C4F200010023102280E80E00C0E9B9
:103CE0000333C0E905338383FCF7C8FD002808BF10
:103CF00080BDBDE88040FCF7EFBB00002DE9F04F30
:103D000087B0002443F630000694CDE90444CDE9A1
:103D100002440194C4F20200016840F6000641F03A
:103D2000100101600168C4F2020601F01001019166
:103D300001990194016806F5006841F004010160F1
:103D40000168002201F004010191019901940168C8
:103D500040F2424741F080010160016801F08001BA
:103D6000019101990194016841F00101016001682C
:103D700001F00101019101990194016841F00201F2
:103D80000160016801F0020101910199019401684B
:103D900041F008010160006840F2424100F0080073
:103DA000019001984046FCF79BFF304642F211011A
:103DB000002242F2110AFCF793FFA6F580694846FB
:103DC00004210022FCF78CFF06F5806528464FF49D
:103DD0008B610022FCF784FF029702AF4FF0010BCA
:103DE00040463946CDE903B40594FCF7A1FE3046C0
:103DF0003946CDE902ABCDE90444FCF799FE202019
:103E0000CDE90204304639460494FCF791FE0420C3
:103E1000CDE9020B48463946CDE90444FCF788FE5B
:103E20008120CDE90204404639460494FCF780FE27
:103E30004FF48B60CDE9020B28463946CDE90444A6
:103E4000FCF776FE802002904FF48810CDE9030441
:103E500028463946FCF76CFE07B0BDE8F08F00003D
:103E600080B540F2785045F20041C2F20000C4F241
:103E7000000148F2A06200234FF4804CC0F201021E
:103E800080E80E00C0E9033CC0E90533C0E9073310
:103E9000FCF732FF002808BF80BDBDE88040FCF77A
:103EA0001BBB000080B540F2CC5045F60041C2F289
:103EB0000000C4F2000148F2A06200234FF4804CDD
:103EC000C0F2010280E80E00C0E9033CC0E90533FE
:103ED000C0E90733FCF710FF002808BF80BDBDE82C
:103EE0008040FCF7F9BA000080B540F2206043F64C
:103EF0000001C2F20000C4F200014FF482720023FC
:103F00004FF4007C80E80E000A21C0E90333C0E9C9
:103F1000053CC361C0E90833C0E90A31FDF774FC10
:103F2000002808BF80BDBDE88040FCF7D5BA00007E
:103F300080B588B040F2C06044F200420021C2F275
:103F40000000C4F201024FF6FF73CDE90611CDE97E
:103F50000411C0E90021C0E9021301618161FDF78C
:103F6000A1FD002818BFFCF7B7FA40F2C060C2F20A
:103F70000000FEF7B3FC002818BFFCF7ADFA602084
:103F800001900020CDE90200059040F2C060C2F22D
:103F9000000001A90022FEF791FB002818BFFCF7E2
:103FA0009BFA40F2C060C2F20000FEF7FDF908B0D3
:103FB00080BD000080B588B040F2087044F6000271
:103FC0000021C2F20000C4F201024FF6FF73CDE9F6
:103FD0000611CDE90411C0E90021C0E90213016115
:103FE0008161FDF75FFD002818BFFCF775FA40F20C
:103FF0000870C2F20000FEF771FC002818BFFCF741
:104000006BFA602001900020CDE90200059040F29B
:104010000870C2F2000001A90022FEF74FFB002841
:1040200018BFFCF759FA40F20870C2F20000FEF720
:10403000BBF908B080BD000080B58CB040F2507074
:1040400041F600020021C2F20000C4F200024FF665
:10405000FF730B91CDE909110791CDE90511CDE968
:104060000311CDE90111C0E90021C0E9021301618A
:104070008161FDF717FD002818BFFCF72DFA4FF4FA
:104080008050089040F25070C2F2000008A9FDF77D
:10409000BDFD002818BFFCF71FFA40F25070C2F2B5
:1040A0000000FEF71BFC002818BFFCF715FA602083
:1040B00001900020CDE90200059040F25070C2F25C
:1040C000000001A90022FEF7F9FA002818BFFCF74A
:1040D00003FA40F25070C2F2000001A90422FEF778
:1040E000EDFA002818BFFCF7F7F940F25070C2F261
:1040F0000000FEF759F90CB080BD000010B58CB07F
:1041000040F2786000210024C2F20000C4F20101F4
:10411000C0E9001401214FF6FF72CDE90314CDE987
:104120000514CDE9091403A9CDE90044C0E9024210
:10413000C0E904448461CDE907440B94FDF736FEE1
:10414000002818BFFCF7C8F940F27860C2F20000FE
:104150006946CDE90044FDF747FC002818BFFCF78D
:10416000BBF90CB010BD000080B58CB040F2987067
:104170000021C2F200004FF080424FF0FF33C0E94F
:1041800000210122CDE90011C0E902130161816122
:10419000CDE90321CDE90521CDE90711CDE90921BB
:1041A0000B9103A9FDF702FE002818BFFCF794F954
:1041B00040F29870C2F200006946FDF715FC002835
:1041C00018BFFCF789F90CB080BD000080B58CB039
:1041D00040F2E07040F200420021C2F20000C4F25E
:1041E00000024FF6FF73C0E900210122CDE9001162
:1041F000C0E9021301618161CDE90321CDE9052107
:10420000CDE90711CDE909210B9103A9FDF7CEFDF9
:10421000002818BFFCF760F940F2E070C2F200001D
:104220006946FDF7E1FB002818BFFCF755F90CB013
:1042300080BD000080B58CB040F6280040F600023A
:104240000021C2F20000C4F200024FF6FF73C0E981
:1042500000210122CDE90011C0E902130161816151
:10426000CDE90321CDE90521CDE90711CDE90921EA
:104270000B9103A9FDF79AFD002818BFFCF72CF954
:1042800040F62800C2F200006946FDF7ADFB0028A9
:1042900018BFFCF721F90CB080BD000080B582B0DA
:1042A00040F6700041F200020021C2F20000C4F2A8
:1042B00000024FF6FF73CDE90011C0E90021C0E90B
:1042C000021380218161FDF7EDFB002818BFFCF788
:1042D00003F940F67000C2F200006946FDF784FB66
:1042E000002818BFFCF7F8F802B080BD10B596B0F2
:1042F00040F6B80040F200420021C2F20000C4F2D1
:1043000001024FF6FF731591CDE913111191CDE91B
:104310000F11CDE90D11CDE90B11CDE90911CDE951
:104320000711CDE90511CDE90311CDE90111C0E96E
:104330000021C0E90213C0E904118161FDF7B2FB5D
:10434000002818BFFCF7C8F84FF48050129040F6D0
:10435000B800C2F2000012A9FDF758FC002818BFEF
:10436000FCF7BAF840F6B800C2F20000FEF776F9A2
:10437000002818BFFCF7B0F840F6B8000024C2F2DD
:10438000000010A9CDE91044FDF72EFB002818BF4E
:10439000FCF7A2F840F6B800C2F2000009A9082212
:1043A0000F94CDE90D44CDE90B44CDE90944FEF766
:1043B00079F8002818BFFCF78FF800200590CDE9A8
:1043C0000300CDE901004FF40051089040F6B80019
:1043D0000691C2F2000001A9FDF7E0FA002818BF1B
:1043E000FCF77AF840F6B800C2F20000FDF7DCFFF7
:1043F00016B010BD10B584B040F6001044F20001B4
:10440000C2F20000C4F2010100244FF6FF72C0E9BD
:104410000014C0E9024204618461FDF7B5FE002882
:1044200018BFFCF759F80120CDE9010440F600104F
:10443000C2F200006946002200940394FDF7C0FD1B
:10444000002818BFFCF748F80220CDE9000040F62C
:104450000010C2F2000069460422FDF7B1FD0028F9
:1044600018BFFCF739F804B010BD000080B540F665
:10447000202044F60041C2F20000C4F200010023F3
:104480004FF00C0C4FF4E13280E80E00C0E903332A
:10449000C0E905C3C361FEF725FD002808BF80BD44
:1044A000BDE88040FCF718B880B540F6682045F2BA
:1044B0000001C2F20000C4F2000100234FF00C0C16
:1044C0004FF4E13280E80E00C0E90333C0E905C3D0
:1044D000C361FEF707FD002808BF80BDBDE880402E
:1044E000FBF7FABF80B540F6481041F20001C2F276
:1044F0000000C4F2010100234FF00C0C4FF4E13234
:1045000080E80E00C0E90333C0E905C3C361FEF7CC
:10451000E9FC002808BF80BDBDE88040FBF7DCBF98
:1045200080B540F6901044F20041C2F20000C4F29F
:10453000000100234FF00C0C4FF4E13280E80E0034
:10454000C0E90333C0E905C3C361FEF7CBFC002813
:1045500008BF80BDBDE88040FBF7BEBF80B540F618
:10456000D81044F60001C2F20000C4F2000100239A
:104570004FF00C0C4FF4E13280E80E00C0E9033339
:10458000C0E905C3C361FEF7ADFC002808BF80BDCC
:10459000BDE88040FBF7A0BF80B540F6B02041F2F7
:1045A0000041C2F20000C4F2010100234FF00C0CE4
:1045B0004FF4E13280E80E00C0E90333C0E905C3DF
:1045C000C361FEF78FFC002808BF80BDBDE88040B6
:1045D000FBF782BFFEE70000FEE700002DE9F04197
:1045E00084B040F2CC54AE20C2F200048DF80F002B
:1045F000642501260DF10F072046782100220123B2
:10460000CDE9007602954FF00008FCF727FCD52095
:104610008DF80F002046782100220123CDE9007695
:104620000295FCF71BFC80208DF80F0020467821B6
:1046300000220123CDE900760295FCF70FFCA820AB
:104640008DF80F002046782100220123CDE9007665
:104650000295FCF703FC3F208DF80F0020467821DF
:1046600000220123CDE900760295FCF7F7FBD32069
:104670008DF80F002046782100220123CDE9007635
:104680000295FCF7EBFB20467821002201238DF8F0
:104690000F80CDE900760295FCF7E0FB40208DF815
:1046A0000F002046782100220123CDE900760295F3
:1046B000FCF7D4FBA1208DF80F00204678210022C2
:1046C0000123CDE900760295FCF7C8FBC8208DF8E0
:1046D0000F002046782100220123CDE900760295C3
:1046E000FCF7BCFBDA208DF80F0020467821002271
:1046F0000123CDE900760295FCF7B0FB12208DF87E
:104700000F002046782100220123CDE90076029592
:10471000FCF7A4FB81208DF80F00204678210022B1
:104720000123CDE900760295FCF798FBCF208DF8A8
:104730000F002046782100220123CDE90076029562
:10474000FCF78CFBD9208DF80F0020467821002241
:104750000123CDE900760295FCF780FBF1208DF86E
:104760000F002046782100220123CDE90076029532
:10477000FCF774FBDB208DF80F0020467821002227
:104780000123CDE900760295FCF768FB30208DF817
:104790000F002046782100220123CDE90076029502
:1047A000FCF75CFBA4208DF80F0020467821002246
:1047B0000123CDE900760295FCF750FBA6208DF889
:1047C0000F002046782100220123CDE900760295D2
:1047D000FCF744FB8D208DF80F0020467821002245
:1047E0000123CDE900760295FCF738FB14208DF803
:1047F0000F002046782100220123CDE900760295A2
:10480000FCF72CFBAF208DF80F002046782100220A
:104810000123CDE900760295FCF720FB40F29800D9
:10482000C2F200004FF48061FBF7ACFD00F016FE11
:1048300004B0BDE8F081000080B582B0062B11D035
:10484000082B1FD146F29123C0F6000303EB02129E
:10485000A2F5007C08221023CDF800C000F09AF8E1
:1048600002B080BD46F2570302EB4202C0F60003DD
:1048700003EB4202A2F1C00C06220823CDF800C0CF
:1048800000F088F802B080BD2DE9F04F83B0002B16
:10489000029100F07B800C9E1C4692468346981E37
:1048A000C3F100085F1E4FF0000901900CE000BF4B
:1048B000029908221023009500F06CF809F1010913
:1048C000A145A7F1010761D089EA0800013007D0AE
:1048D0000198A0EB0900032804D201200AE000BFE0
:1048E000012017E027F00301012000BF04394FEA3F
:1048F0000040FBD16FEA0901214411F0030109D006
:10490000012901D1000105E00203022908BF0202CA
:10491000104600BFBAFBF0F000F00F0109FB06B033
:10492000092900B20CD8062E18D0082EC6D146F29E
:104930009122C0F6000202EB011101F58075B7E784
:10494000062E15D0082EB9D146F29122C0F60002EB
:1049500002EB011101F5B875AAE700BF103146F26C
:10496000570201EB4101C0F6000202EB410509E0EC
:1049700046F2570201EB4101C0F6000202EB410191
:1049800001F18A0502990622082394E703B0BDE8E5
:10499000F08F00002DE9F04F8BB0002B03920A90AE
:1049A0007AD0039803EB0108002863D00A9A40F2FA
:1049B000980E86184FF0010CC2F2000E0C46894684
:1049C00006E000BF09F101090FFA89F4A04563DD93
:1049D0001FFA89F2402A0A9A0CD209F007020A9DAE
:1049E0000CFA02F2E4086FEA020A0EEBC4172A4638
:1049F00016E000BF541C24B2A642E3DD941C24B28E
:104A0000A642DFDDD41C24B2A642DBDD043214B2A0
:104A1000A642EFDCD6E700BF04352AB29642D1DDCC
:104A2000ACB27F2C03D8BC5C04EA0A04BC546C1CF6
:104A300022B29642C6DDA4B27F2C03D8BC5C04EA45
:104A40000A04BC54AC1C22B29642BBDDA4B27F2C3B
:104A500003D8BC5C04EA0A04BC54EC1C22B29642A3
:104A6000B0DDA4B27F2CD7D8BC5C04EA0A04BC54E5
:104A7000D2E700BF0A4600BF571C3FB2B8450BDD66
:104A8000971C3FB2B84507DDD71C3FB2B84503DDE0
:104A9000043217B2B845EFDC5A1EDDF80C8002EB89
:104AA0005272B8F1000F4FEAE20700F0578201EBB3
:104AB0005172D31003EBE130049008F0030022F0B0
:104AC0000702082307900A988A1A03EA11310A4458
:104AD000411C0191811C009140F29801C2F2000139
:104AE0001FFA82F9C2F1080201441FFA82FA08F0A3
:104AF000FC0C0291002200210597CDF824C00CE0A7
:104B000017783B43137000BF0899059F0131CAB263
:104B1000DDF824C09742C0F236820891CBB21499D6
:104B200018FB031B049B02FB08119E18082E06F1BC
:104B3000010206917CD2082A80F0CC80B8F1040FE3
:104B400080F00E814FF0000C0799DDF80C800029F1
:104B5000DAD00CEB00037F2B1BD8069940F2980E9D
:104B6000C2F2000E14460A4611F80C7031460EEBE4
:104B7000C616F55C07FA09F72F43F75412F80C70C4
:104B80000EEBC416F55C27FA0AF72F432246F754BA
:104B90000E4607990129B7D001990CEB01037F2B31
:104BA00021D8069840F2980B0CF10107C2F2000BD5
:104BB00010F807E00BEBC61515F8038031460EFA26
:104BC00009F646EA080614460246EE54D75D0BEB9A
:104BD000C416F55C27FA0AF70A98DDF80C802F4313
:104BE0002246F7540E46079902298DD000990CEB06
:104BF00001077F2F88D8069840F298010CF1020334
:104C0000C2F2000110F803C001EBC61515F807E069
:104C10000CFA09F646EA0E0614460246EE55D35C37
:104C20000A9801EBC41223FA0AF33A4468E700BF7A
:104C3000072A3FF669AF9446B8F1040F80F004816B
:104C40000025079900293FF45FAF2B1862467F2BA0
:104C500010D8069810F805C040F29800C2F2000083
:104C600000EBC21616F803E02CFA0AF70A9847EA96
:104C70000E07F754079901293FF446AF01996B18C5
:104C80007F2B11D806986F1C10F807C040F29800CF
:104C9000C2F2000000EBC21616F803E02CFA0AF785
:104CA0000A9847EA0E07F754079902293FF42CAFF8
:104CB00000996F187F2F3FF627AF0699AB1CCB5C8E
:104CC00040F29801C2F2000101EBC21223FA0AF38A
:104CD0003A4415E7B8F1040F80F00481B646002588
:104CE000079900293FF410AF2A187F2A0CD806999B
:104CF0004B5D40F29801C2F2000101EBCE17BE5CA1
:104D000003FA09F33343BB54079901293FF4FCAE7E
:104D100001996A187F2A0DD806996B1CCB5C40F26A
:104D20009801C2F2000101EBCE17BE5C03FA09F351
:104D30003343BB54079902293FF4E6AE00996A1841
:104D40007F2A3FF6E1AE0699AB1CCB5C40F298019E
:104D5000C2F2000101EBCE1703FA09F33A44CFE6A1
:104D600002994FF0000C01EBC61506E009980CF112
:104D7000040C60450A983FF4E7AE00EB0C037F2B70
:104D800005EB0C0E0CD9591C7F290BEB0C081ED916
:104D9000991C7F2930D9D91C7F29E7D841E000BF71
:104DA0001BF80C1015F80C4001FA09F1214305F825
:104DB0000C101BF80C109EF8804021FA0AF12143D8
:104DC0008EF88010591C7F290BEB0C08E0D898F85E
:104DD00001109EF8014001FA09F121438EF80110FB
:104DE00098F801109EF8814021FA0AF121438EF8CB
:104DF0008110991C7F29CED898F802109EF80240A5
:104E000001FA09F121438EF8021098F802109EF879
:104E1000824021FA0AF121438EF88210D91C7F29A1
:104E2000A4D898F803109EF8033001FA09F1194349
:104E30008EF8031098F803109EF8833021FA0AF1D7
:104E400019438EF8831091E70299099A01EBC61372
:104E5000002503E00435AA423FF4F3AE47197F2F43
:104E60000AD9791C7F2914D9B91C7F291FD9F91CAB
:104E70007F29EFD829E000BF1BF805105E1996F8CE
:104E8000804021FA0AF1214386F88010791C7F299D
:104E9000EAD80BEB050149785E1996F8814021FAB2
:104EA0000AF1214386F88110B91C7F29DFD80BEB6A
:104EB000050189785E1996F8824021FA0AF12143AA
:104EC00086F88210F91C7F29C4D80BEB0501C9783C
:104ED0005F1997F8836021FA0AF1314387F883104C
:104EE000B8E700BF0299B64601EBC613002503E000
:104EF0000435AC453FF4F4AE42197F2A06D81BF8BE
:104F000005705E5D07FA09F737435F55571C7F2F21
:104F10000BEB050603EB050706D9911C7F290CD97D
:104F2000D11C7F29E4D811E071787C7801FA09F16D
:104F300021437970911C7F29F2D8B178BC7801FAAD
:104F400009F12143B970D11C7F29D1D8F178FA78C1
:104F500001FA09F11143F970CAE700BF002000BF50
:104F600040F00101C9B28F420DDB40F00201C9B22D
:104F70008F4208D340F00301C9B28F4203D30430FB
:104F8000C1B28F42ECD20BB0BDE8F08F2DE9F04FEB
:104F900089B0154612780591002A069000F0E2804B
:104FA0000DF11F01881C0490C81C45F6547A9846E0
:104FB0000390081DC0F6000A4FF0250B00264FF0A5
:104FC0000009029016E000BF069846F25701C0F6AD
:104FD0000001304401F1BA07059900B20622082306
:104FE0000097FFF7D7FC06361FFA89F02A5C002AE3
:104FF00000F0B88050B2B0F1FF3F13DC02F0E000E7
:10500000C02809F1010029D002F0F001E02933D0D5
:1050100002F0F801F02943D081B26A5C8146002A8F
:10502000E8D19FE000208DF820000698B8F1060F27
:10503000304400B28DF81F2000F08080B8F1080FD6
:1050400040F08C8046F29121C0F6000101EB021184
:10505000A1F500770599082210237CE080B2285C36
:105060008DF81F20002800F07D808DF82000049826
:1050700009F102092FE000BF80B2285C8DF81F20E3
:1050800000286FD009F1020189B2695C8DF8200017
:10509000002967D0039809F103098DF821101AE05F
:1050A00080B2285C8DF81F2000285BD009F1020136
:1050B00089B2695C8DF82000002953D009F1030002
:1050C00080B2285C8DF8211000284BD08DF822008A
:1050D000029809F104099AF8001000294FF0000124
:1050E000017015D00024574638460DF11F01FBF71B
:1050F00073F948B10134A0B200FB0BF11AF80110AA
:1051000000FB0BA70029EFD1B8F1060F05D15BE733
:105110005746B8F1060F3FF457AFB8F1080F7FF4C8
:1051200063AF069805993044053700B2102210236A
:105130000097FFF72FFC103656E700BF02EB420145
:1051400046F25702C0F6000202EB4101A1F1C0078E
:105150000599062208230097FFF71CFC09F10109B5
:10516000464441E709B0BDE8F08F00002DE9F04F5B
:1051700085B0B6A20020002106230024FFF706FF19
:1051800040F27E00C2F20000B0F906E04CF6CD4BD2
:1051900049F69A1A48F21F5944F6D358BEF1000F47
:1051A000CCF6CC4BC1F6991AC5F2EB19C1F26208E4
:1051B0004AD07146002502AA42F20F7CBEF1000FD0
:1051C00048BFCEF1000100BFA1FB0B64E60806EB6F
:1051D0008604A1EB440345F00104E8B20A29135404
:1051E0003CD3A6FB0A0303EB8300A6EB400045F08B
:1051F0000206E3B26429D05432D3A1FB0903580953
:10520000A0FB0A3404EB8403A0EB430045F0030445
:10521000F3B2B1F57A7FD05420D3A1FB08039809EB
:10522000A0FB0A3641F25973CDF2B713A1FB033745
:1052300006EB8603A0EB43000435E3B261454FEA79
:105240005731D054C0D80CE0182000212B2206235F
:105250008DF80840FFF7F0FA01250EE0254600E042
:1052600035462B22182000210623BEF1000F48BF2F
:105270002D22FFF7E1FA280615D002A850FA85F092
:10528000A0F10108182400BF18F80119A01D04B2EC
:1052900001F13000C2B2204600210623FFF7CCFA0C
:1052A000013D2806F0D140F27E08C2F20008B8F9AC
:1052B00008E0BEF1000F4FD0714600250DF10E023F
:1052C00042F20F7CBEF1000F48BFCEF1000100BFDB
:1052D000A1FB0B76F60806EB8607A1EB470745F026
:1052E0000104EBB20A29D75442D3A6FB0A3707EBD5
:1052F0008703A6EB430345F00206E7B26429D355C2
:1053000038D3A1FB09377B09A3FB0A7404EB84079C
:10531000A3EB470345F00304F7B2B1F57A7FD35509
:1053200026D344F6D350C1F26200A1FB0037BB097B
:1053300041F25970A3FB0A76CDF2B710A1FB0070C1
:1053400006EB8606A3EB46030435E4B261454FEA5B
:1053500050311355BCD80EE000208DF80E004820C7
:1053600000212B220623FFF767FA01250FE000BF7B
:10537000254600E035462B22482000210623BEF1B9
:10538000000F48BF2D22FFF757FA280615D00DF160
:105390000E0050FA85F0461E482400BF16F8011989
:1053A000A01D04B201F13000C2B220460021062344
:1053B000FFF742FA013D2806F0D125A2002008217E
:1053C00006230624FFF7E2FD98F8032018200821A1
:1053D00002230094FFF758FA98F804202A200821A5
:1053E00002230094FFF750FA1AA20020102106238E
:1053F000FFF7CCFD98F8002018201021022300941C
:10540000FFF742FA98F801202A2010210223009485
:10541000FFF73AFA98F802203C201021022300946A
:10542000FFF732FA0CA2002018210623FFF7AEFD89
:1054300098F80C201820182102230094FFF724FA72
:1054400005B0BDE8F04F00F009B800BF47523A0080
:1054500054523A0051523A00544E3A002DE9F04F5E
:1054600085B040F2980640F2CC54C2F200066427A0
:105470000125C2F200040DF1120B0DF113084FF0DB
:1054800080094FF0000A00BF4AF0B0008DF811000B
:105490000DF11100CDE900052046782100220123FD
:1054A0000297FBF7DBFC10208DF8120020467821D4
:1054B00000220123CDE900B50297FBF7CFFC0020C5
:1054C0008DF813002046782100220123CDE90085C4
:1054D0000297FBF7C3FC2046782140220123CDE947
:1054E00000690297FBF7BAFC0AF1010ABAF1080F4A
:1054F00006F18006C8D105B0BDE8F08F7047000006
:1055000070470000FBF7E0BD70B592B006AC2046D6
:105510003021FAF737FF002543F640000595CDE925
:105520000355CDE901550095C4F202000168022639
:1055300041F080510160006800F0805000900098B8
:1055400047F200000095C4F20000016841F4804178
:105550000160006800F480400090009801200690EF
:105560004FF4803007904FF480000D9008200E908B
:105570004FF4A870CDE90F060420119020460C9638
:10558000FBF76CFF10B172B6FEE700BF0F20CDE94C
:1055900001064FF4A05004904FF48050059001A8EC
:1055A00005210395FBF748FE10B172B6FEE700BF78
:1055B00012B070BD4EF68850CEF20000016841F482
:1055C000700101607047000040F67000C2F20000F8
:1055D000FCF742BEB0B540F6FF3E0568C4F2000ECF
:1055E00040F2004C7045C4F2010C25DCB0F1804F54
:1055F0002FD040F20043C4F20003984229D040F675
:105600000003C4F20003984223D041F6FF73C4F2B2
:105610000003984228DC70453ADCB0F1804F5BD043
:1056200040F20043C4F20003984255D040F6000314
:10563000C4F200034EE000BF40F60043C4F2000392
:10564000984206D0604504D00023C4F2010398427A
:10565000DBD14B6825F0700243EA020541F6FF7387
:10566000C4F200039842D6DD43F6FF73C4F201038F
:1056700098421FDC42F20003C4F2000398422BD090
:105680000023C4F20103984226D0604524D028E0CC
:1056900040F60043C4F2000398421DD041F60003D7
:1056A000C4F20003984217D041F60043C4F200034D
:1056B00010E000BF44F20003C4F2010398420BD093
:1056C00044F60003C4F20103984205D044F20043BB
:1056D000C4F20103984204D1CB6825F4407243EA36
:1056E00002050A688C684B69C46240F48064826277
:1056F000644504BF09690163026825F0800142F036
:10570000040219430260012242610160B0BD000041
:1057100040F62020C2F20000FDF71AB9806B00218C
:10572000C185FDF713B9000081B090F8421022291D
:1057300021D183680246B3F5805F09D152F8281F52
:1057400052F8183C002B63D003685B680AE000BF86
:1057500052F8281F13B90369002BF5D003685B6862
:1057600003F07F030B70116801311160C18D0139A5
:105770000A04C18502D001B0704700BF0168CA6841
:1057800022F02002CA60CA6822F48072CA604A69A4
:1057900022F001024A61202180F842100021416379
:1057A000026B012A3CD10163016851E8031F0268C2
:1057B00021F0100142E80313DBB1016851E8031F37
:1057C000026821F0100142E8031393B1016851E827
:1057D000031F026821F0100142E803134BB1016876
:1057E00051E8031F026821F0100142E80313002B67
:1057F000DAD101680A68D20606D5002200920A684A
:105800000092496800910099818D01B0FDF79CB824
:10581000026852686FF35F2221F8022B8162A5E7CC
:1058200001B0FDF70BBD0000B0B50446006804F1FF
:1058300008030ECB0569194325F440552A4302613C
:105840006269E3691143C268194349F20C639A43E0
:105850001143C1604169A26921F4407141F20043E2
:10586000114340F48062C4F201039A42416103D1C2
:10587000FBF7A8FD02E000BFFBF790FDE1694FF6E2
:105880009C7563681922C0F6FF75B1F5004FA0FB47
:1058900002011FD15A00DB0FFAF7FCFC48F21F513E
:1058A000C5F2EB11A0FB01235A0905F1805302FB5D
:1058B0000300322303EBC000A0FB01014FF4F8709A
:1058C00000EA111000EB0210C1F3421108442168F4
:1058D0008860B0BD9A009B0FFAF7DCFC48F21F51BC
:1058E000C5F2EB11A0FB01235A0902FB050032238C
:1058F00003EB0010A0FB0101F02000EA511000EBC7
:105900000210C1F34311084421688860B0BD000053
:1059100040F69010C2F20000FDF71AB840F28C0079
:10592000C2F20000002141600160704740F28C012A
:10593000C2F2000108684A68904202BF4FF6FF7049
:1059400000B27047086840F6F822C2F20002105C0C
:105950000A6800B20132D31702EB536323F07F03CE
:10596000D21A0A6070470000002808BF70470B4633
:1059700051B1024640F69010C2F2000011461A469C
:105980001423FDF7A5BD00BF70470000FEE700002F
:1059900080B5342005210022FBF712FC3420FBF7F0
:1059A000FDFB40F6202040F27001C2F20000C2F27E
:1059B00000010122BDE88040FDF716BC70B582B041
:1059C00015460A460446484248F20001CFF6FF71E8
:1059D0000DF10106002A48BF40EA0102701CB11C0B
:1059E0008DF80130FDF742FEF01C311D0022FDF75D
:1059F0003DFE701DB11D2A46FDF738FE20462921C7
:105A00003246072300F096F802B070BDB0B582B000
:105A10000DF10700012100F0B7F9002800F08680A1
:105A20009DF807500DF10700012100F0ADF90028A5
:105A30007CD09DF8074004EA0500FF2863D00DF1F3
:105A40000700012100F0A0F900286FD09DF8075051
:105A500005EA0400FF2856D00DF10700012100F0EF
:105A600093F9002862D09DF8074004EA0500FF285A
:105A700049D00DF10700012100F086F9002855D02A
:105A80009DF8075005EA0400FF283CD00DF10700FF
:105A9000012100F079F9002848D09DF8074004EA78
:105AA0000500FF282FD00DF10700012100F06CF94F
:105AB000E0B39DF8075005EA0400FF2823D00DF15C
:105AC0000700012100F060F980B39DF8074004EA67
:105AD0000500FF2817D00DF10700012100F054F94F
